{"abi":[{"type":"constructor","inputs":[{"name":"baseURI","type":"string","internalType":"string"},{"name":"initialOwner","type":"address","internalType":"address"}],"stateMutability":"nonpayable"},{"type":"function","name":"badgeCount","inputs":[],"outputs":[{"name":"","type":"uint256","internalType":"uint256"}],"stateMutability":"view"},{"type":"function","name":"badges","inputs":[{"name":"","type":"uint256","internalType":"uint256"}],"outputs":[{"name":"id","type":"uint256","internalType":"uint256"},{"name":"name","type":"string","internalType":"string"},{"name":"description","type":"string","internalType":"string"},{"name":"uri","type":"string","internalType":"string"}],"stateMutability":"view"},{"type":"function","name":"balanceOf","inputs":[{"name":"account","type":"address","internalType":"address"},{"name":"id","type":"uint256","internalType":"uint256"}],"outputs":[{"name":"","type":"uint256","internalType":"uint256"}],"stateMutability":"view"},{"type":"function","name":"balanceOfBatch","inputs":[{"name":"accounts","type":"address[]","internalType":"address[]"},{"name":"ids","type":"uint256[]","internalType":"uint256[]"}],"outputs":[{"name":"","type":"uint256[]","internalType":"uint256[]"}],"stateMutability":"view"},{"type":"function","name":"createBadge","inputs":[{"name":"name","type":"string","internalType":"string"},{"name":"description","type":"string","internalType":"string"},{"name":"metadataURI","type":"string","internalType":"string"}],"outputs":[],"stateMutability":"nonpayable"},{"type":"function","name":"hasBadge","inputs":[{"name":"","type":"address","internalType":"address"},{"name":"","type":"uint256","internalType":"uint256"}],"outputs":[{"name":"","type":"bool","internalType":"bool"}],"stateMutability":"view"},{"type":"function","name":"isApprovedForAll","inputs":[{"name":"account","type":"address","internalType":"address"},{"name":"operator","type":"address","internalType":"address"}],"outputs":[{"name":"","type":"bool","internalType":"bool"}],"stateMutability":"view"},{"type":"function","name":"mintBadge","inputs":[{"name":"user","type":"address","internalType":"address"},{"name":"badgeId","type":"uint256","internalType":"uint256"}],"outputs":[],"stateMutability":"nonpayable"},{"type":"function","name":"owner","inputs":[],"outputs":[{"name":"","type":"address","internalType":"address"}],"stateMutability":"view"},{"type":"function","name":"renounceOwnership","inputs":[],"outputs":[],"stateMutability":"nonpayable"},{"type":"function","name":"safeBatchTransferFrom","inputs":[{"name":"from","type":"address","internalType":"address"},{"name":"to","type":"address","internalType":"address"},{"name":"ids","type":"uint256[]","internalType":"uint256[]"},{"name":"values","type":"uint256[]","internalType":"uint256[]"},{"name":"data","type":"bytes","internalType":"bytes"}],"outputs":[],"stateMutability":"nonpayable"},{"type":"function","name":"safeTransferFrom","inputs":[{"name":"from","type":"address","internalType":"address"},{"name":"to","type":"address","internalType":"address"},{"name":"id","type":"uint256","internalType":"uint256"},{"name":"value","type":"uint256","internalType":"uint256"},{"name":"data","type":"bytes","internalType":"bytes"}],"outputs":[],"stateMutability":"nonpayable"},{"type":"function","name":"setApprovalForAll","inputs":[{"name":"operator","type":"address","internalType":"address"},{"name":"approved","type":"bool","internalType":"bool"}],"outputs":[],"stateMutability":"nonpayable"},{"type":"function","name":"supportsInterface","inputs":[{"name":"interfaceId","type":"bytes4","internalType":"bytes4"}],"outputs":[{"name":"","type":"bool","internalType":"bool"}],"stateMutability":"view"},{"type":"function","name":"transferOwnership","inputs":[{"name":"newOwner","type":"address","internalType":"address"}],"outputs":[],"stateMutability":"nonpayable"},{"type":"function","name":"uri","inputs":[{"name":"badgeId","type":"uint256","internalType":"uint256"}],"outputs":[{"name":"","type":"string","internalType":"string"}],"stateMutability":"view"},{"type":"event","name":"ApprovalForAll","inputs":[{"name":"account","type":"address","indexed":true,"internalType":"address"},{"name":"operator","type":"address","indexed":true,"internalType":"address"},{"name":"approved","type":"bool","indexed":false,"internalType":"bool"}],"anonymous":false},{"type":"event","name":"BadgeCreated","inputs":[{"name":"badgeId","type":"uint256","indexed":true,"internalType":"uint256"},{"name":"name","type":"string","indexed":false,"internalType":"string"}],"anonymous":false},{"type":"event","name":"BadgeMinted","inputs":[{"name":"user","type":"address","indexed":true,"internalType":"address"},{"name":"badgeId","type":"uint256","indexed":true,"internalType":"uint256"}],"anonymous":false},{"type":"event","name":"OwnershipTransferred","inputs":[{"name":"previousOwner","type":"address","indexed":true,"internalType":"address"},{"name":"newOwner","type":"address","indexed":true,"internalType":"address"}],"anonymous":false},{"type":"event","name":"TransferBatch","inputs":[{"name":"operator","type":"address","indexed":true,"internalType":"address"},{"name":"from","type":"address","indexed":true,"internalType":"address"},{"name":"to","type":"address","indexed":true,"internalType":"address"},{"name":"ids","type":"uint256[]","indexed":false,"internalType":"uint256[]"},{"name":"values","type":"uint256[]","indexed":false,"internalType":"uint256[]"}],"anonymous":false},{"type":"event","name":"TransferSingle","inputs":[{"name":"operator","type":"address","indexed":true,"internalType":"address"},{"name":"from","type":"address","indexed":true,"internalType":"address"},{"name":"to","type":"address","indexed":true,"internalType":"address"},{"name":"id","type":"uint256","indexed":false,"internalType":"uint256"},{"name":"value","type":"uint256","indexed":false,"internalType":"uint256"}],"anonymous":false},{"type":"event","name":"URI","inputs":[{"name":"value","type":"string","indexed":false,"internalType":"string"},{"name":"id","type":"uint256","indexed":true,"internalType":"uint256"}],"anonymous":false},{"type":"error","name":"ERC1155InsufficientBalance","inputs":[{"name":"sender","type":"address","internalType":"address"},{"name":"balance","type":"uint256","internalType":"uint256"},{"name":"needed","type":"uint256","internalType":"uint256"},{"name":"tokenId","type":"uint256","internalType":"uint256"}]},{"type":"error","name":"ERC1155InvalidApprover","inputs":[{"name":"approver","type":"address","internalType":"address"}]},{"type":"error","name":"ERC1155InvalidArrayLength","inputs":[{"name":"idsLength","type":"uint256","internalType":"uint256"},{"name":"valuesLength","type":"uint256","internalType":"uint256"}]},{"type":"error","name":"ERC1155InvalidOperator","inputs":[{"name":"operator","type":"address","internalType":"address"}]},{"type":"error","name":"ERC1155InvalidReceiver","inputs":[{"name":"receiver","type":"address","internalType":"address"}]},{"type":"error","name":"ERC1155InvalidSender","inputs":[{"name":"sender","type":"address","internalType":"address"}]},{"type":"error","name":"ERC1155MissingApprovalForAll","inputs":[{"name":"operator","type":"address","internalType":"address"},{"name":"owner","type":"address","internalType":"address"}]},{"type":"error","name":"OwnableInvalidOwner","inputs":[{"name":"owner","type":"address","internalType":"address"}]},{"type":"error","name":"OwnableUnauthorizedAccount","inputs":[{"name":"account","type":"address","internalType":"address"}]}],"bytecode":{"object":"0x608060405234801561000f575f5ffd5b5060405161338b38038061338b83398181016040528101906100319190610347565b8082610042816100ca60201b60201c565b505f73ffffffffffffffffffffffffffffffffffffffff168173ffffffffffffffffffffffffffffffffffffffff16036100b3575f6040517f1e4fbdf70000000000000000000000000000000000000000000000000000000081526004016100aa91906103b0565b60405180910390fd5b6100c2816100dd60201b60201c565b5050506106a8565b80600290816100d991906105d9565b5050565b5f60035f9054906101000a900473ffffffffffffffffffffffffffffffffffffffff1690508160035f6101000a81548173ffffffffffffffffffffffffffffffffffffffff021916908373ffffffffffffffffffffffffffffffffffffffff1602179055508173ffffffffffffffffffffffffffffffffffffffff168173ffffffffffffffffffffffffffffffffffffffff167f8be0079c531659141344cd1fd0a4f28419497f9722a3daafe3b4186f6b6457e060405160405180910390a35050565b5f604051905090565b5f5ffd5b5f5ffd5b5f5ffd5b5f5ffd5b5f601f19601f8301169050919050565b7f4e487b71000000000000000000000000000000000000000000000000000000005f52604160045260245ffd5b6101ff826101b9565b810181811067ffffffffffffffff8211171561021e5761021d6101c9565b5b80604052505050565b5f6102306101a0565b905061023c82826101f6565b919050565b5f67ffffffffffffffff82111561025b5761025a6101c9565b5b610264826101b9565b9050602081019050919050565b8281835e5f83830152505050565b5f61029161028c84610241565b610227565b9050828152602081018484840111156102ad576102ac6101b5565b5b6102b8848285610271565b509392505050565b5f82601f8301126102d4576102d36101b1565b5b81516102e484826020860161027f565b91505092915050565b5f73ffffffffffffffffffffffffffffffffffffffff82169050919050565b5f610316826102ed565b9050919050565b6103268161030c565b8114610330575f5ffd5b50565b5f815190506103418161031d565b92915050565b5f5f6040838503121561035d5761035c6101a9565b5b5f83015167ffffffffffffffff81111561037a576103796101ad565b5b610386858286016102c0565b925050602061039785828601610333565b9150509250929050565b6103aa8161030c565b82525050565b5f6020820190506103c35f8301846103a1565b92915050565b5f81519050919050565b7f4e487b71000000000000000000000000000000000000000000000000000000005f52602260045260245ffd5b5f600282049050600182168061041757607f821691505b60208210810361042a576104296103d3565b5b50919050565b5f819050815f5260205f209050919050565b5f6020601f8301049050919050565b5f82821b905092915050565b5f6008830261048c7fffffffffffffffffffffffffffffffffffffffffffffffffffffffffffffffff82610451565b6104968683610451565b95508019841693508086168417925050509392505050565b5f819050919050565b5f819050919050565b5f6104da6104d56104d0846104ae565b6104b7565b6104ae565b9050919050565b5f819050919050565b6104f3836104c0565b6105076104ff826104e1565b84845461045d565b825550505050565b5f5f905090565b61051e61050f565b6105298184846104ea565b505050565b5b8181101561054c576105415f82610516565b60018101905061052f565b5050565b601f8211156105915761056281610430565b61056b84610442565b8101602085101561057a578190505b61058e61058685610442565b83018261052e565b50505b505050565b5f82821c905092915050565b5f6105b15f1984600802610596565b1980831691505092915050565b5f6105c983836105a2565b9150826002028217905092915050565b6105e2826103c9565b67ffffffffffffffff8111156105fb576105fa6101c9565b5b6106058254610400565b610610828285610550565b5f60209050601f831160018114610641575f841561062f578287015190505b61063985826105be565b8655506106a0565b601f19841661064f86610430565b5f5b8281101561067657848901518255600182019150602085019450602081019050610651565b86831015610693578489015161068f601f8916826105a2565b8355505b6001600288020188555050505b505050505050565b612cd6806106b55f395ff3fe608060405234801561000f575f5ffd5b50600436106100fd575f3560e01c8063715018a611610095578063e42bff6611610064578063e42bff66146102be578063e985e9c5146102da578063f242432a1461030a578063f2fde38b14610326576100fd565b8063715018a6146102475780638da5cb5b1461025157806398e36d8b1461026f578063a22cb465146102a2576100fd565b80632eb2c2d6116100d15780632eb2c2d6146101ad5780634c6a70ce146101c95780634e1273f4146101f95780635b80664514610229576100fd565b8062fdd58e1461010157806301ffc9a7146101315780630e89341c146101615780631715565914610191575b5f5ffd5b61011b60048036038101906101169190611bf1565b610342565b6040516101289190611c3e565b60405180910390f35b61014b60048036038101906101469190611cac565b610397565b6040516101589190611cf1565b60405180910390f35b61017b60048036038101906101769190611d0a565b610478565b6040516101889190611da5565b60405180910390f35b6101ab60048036038101906101a69190611ef1565b61056c565b005b6101c760048036038101906101c291906120f7565b61064d565b005b6101e360048036038101906101de9190611bf1565b6106f4565b6040516101f09190611cf1565b60405180910390f35b610213600480360381019061020e9190612282565b61071e565b60405161022091906123af565b60405180910390f35b610231610828565b60405161023e9190611c3e565b60405180910390f35b61024f61082e565b005b610259610841565b60405161026691906123de565b60405180910390f35b61028960048036038101906102849190611d0a565b610869565b60405161029994939291906123f7565b60405180910390f35b6102bc60048036038101906102b79190612479565b610a27565b005b6102d860048036038101906102d39190611bf1565b610a3d565b005b6102f460048036038101906102ef91906124b7565b610bf5565b6040516103019190611cf1565b60405180910390f35b610324600480360381019061031f91906124f5565b610c83565b005b610340600480360381019061033b9190612588565b610d2a565b005b5f5f5f8381526020019081526020015f205f8473ffffffffffffffffffffffffffffffffffffffff1673ffffffffffffffffffffffffffffffffffffffff1681526020019081526020015f2054905092915050565b5f7fd9b67a26000000000000000000000000000000000000000000000000000000007bffffffffffffffffffffffffffffffffffffffffffffffffffffffff1916827bffffffffffffffffffffffffffffffffffffffffffffffffffffffff1916148061046157507f0e89341c000000000000000000000000000000000000000000000000000000007bffffffffffffffffffffffffffffffffffffffffffffffffffffffff1916827bffffffffffffffffffffffffffffffffffffffffffffffffffffffff1916145b80610471575061047082610dae565b5b9050919050565b60605f8211801561048b57506004548211155b6104ca576040517f08c379a00000000000000000000000000000000000000000000000000000000081526004016104c1906125fd565b60405180910390fd5b60055f8381526020019081526020015f2060030180546104e990612648565b80601f016020809104026020016040519081016040528092919081815260200182805461051590612648565b80156105605780601f1061053757610100808354040283529160200191610560565b820191905f5260205f20905b81548152906001019060200180831161054357829003601f168201915b50505050509050919050565b610574610e17565b60045f815480929190610586906126a5565b9190505550604051806080016040528060045481526020018481526020018381526020018281525060055f60045481526020019081526020015f205f820151815f015560208201518160010190816105de919061288c565b5060408201518160020190816105f4919061288c565b50606082015181600301908161060a919061288c565b509050506004547f2a19b122d7ceb6b21d4ac9a7636241ea8d5068dec98786163aa0de488f4ccc52846040516106409190611da5565b60405180910390a2505050565b5f610656610e9e565b90508073ffffffffffffffffffffffffffffffffffffffff168673ffffffffffffffffffffffffffffffffffffffff161415801561069b57506106998682610bf5565b155b156106df5780866040517fe237d9220000000000000000000000000000000000000000000000000000000081526004016106d692919061295b565b60405180910390fd5b6106ec8686868686610ea5565b505050505050565b6006602052815f5260405f20602052805f5260405f205f915091509054906101000a900460ff1681565b6060815183511461076a57815183516040517f5b059991000000000000000000000000000000000000000000000000000000008152600401610761929190612982565b60405180910390fd5b5f835167ffffffffffffffff81111561078657610785611dcd565b5b6040519080825280602002602001820160405280156107b45781602001602082028036833780820191505090505b5090505f5f90505b845181101561081d576107f36107db8287610f9990919063ffffffff16565b6107ee8387610fac90919063ffffffff16565b610342565b828281518110610806576108056129a9565b5b6020026020010181815250508060010190506107bc565b508091505092915050565b60045481565b610836610e17565b61083f5f610fbf565b565b5f60035f9054906101000a900473ffffffffffffffffffffffffffffffffffffffff16905090565b6005602052805f5260405f205f91509050805f01549080600101805461088e90612648565b80601f01602080910402602001604051908101604052809291908181526020018280546108ba90612648565b80156109055780601f106108dc57610100808354040283529160200191610905565b820191905f5260205f20905b8154815290600101906020018083116108e857829003601f168201915b50505050509080600201805461091a90612648565b80601f016020809104026020016040519081016040528092919081815260200182805461094690612648565b80156109915780601f1061096857610100808354040283529160200191610991565b820191905f5260205f20905b81548152906001019060200180831161097457829003601f168201915b5050505050908060030180546109a690612648565b80601f01602080910402602001604051908101604052809291908181526020018280546109d290612648565b8015610a1d5780601f106109f457610100808354040283529160200191610a1d565b820191905f5260205f20905b815481529060010190602001808311610a0057829003601f168201915b5050505050905084565b610a39610a32610e9e565b8383611082565b5050565b610a45610e17565b60065f8373ffffffffffffffffffffffffffffffffffffffff1673ffffffffffffffffffffffffffffffffffffffff1681526020019081526020015f205f8281526020019081526020015f205f9054906101000a900460ff1615610ade576040517f08c379a0000000000000000000000000000000000000000000000000000000008152600401610ad590612a20565b60405180910390fd5b5f81118015610aef57506004548111155b610b2e576040517f08c379a0000000000000000000000000000000000000000000000000000000008152600401610b2590612a88565b60405180910390fd5b600160065f8473ffffffffffffffffffffffffffffffffffffffff1673ffffffffffffffffffffffffffffffffffffffff1681526020019081526020015f205f8381526020019081526020015f205f6101000a81548160ff021916908315150217905550610bad8282600160405180602001604052805f8152506111eb565b808273ffffffffffffffffffffffffffffffffffffffff167fc5e5b314108c1f776c2302351b8278910ddb812b122b2717b1bc973146145e9a60405160405180910390a35050565b5f60015f8473ffffffffffffffffffffffffffffffffffffffff1673ffffffffffffffffffffffffffffffffffffffff1681526020019081526020015f205f8373ffffffffffffffffffffffffffffffffffffffff1673ffffffffffffffffffffffffffffffffffffffff1681526020019081526020015f205f9054906101000a900460ff16905092915050565b5f610c8c610e9e565b90508073ffffffffffffffffffffffffffffffffffffffff168673ffffffffffffffffffffffffffffffffffffffff1614158015610cd15750610ccf8682610bf5565b155b15610d155780866040517fe237d922000000000000000000000000000000000000000000000000000000008152600401610d0c92919061295b565b60405180910390fd5b610d228686868686611280565b505050505050565b610d32610e17565b5f73ffffffffffffffffffffffffffffffffffffffff168173ffffffffffffffffffffffffffffffffffffffff1603610da2575f6040517f1e4fbdf7000000000000000000000000000000000000000000000000000000008152600401610d9991906123de565b60405180910390fd5b610dab81610fbf565b50565b5f7f01ffc9a7000000000000000000000000000000000000000000000000000000007bffffffffffffffffffffffffffffffffffffffffffffffffffffffff1916827bffffffffffffffffffffffffffffffffffffffffffffffffffffffff1916149050919050565b610e1f610e9e565b73ffffffffffffffffffffffffffffffffffffffff16610e3d610841565b73ffffffffffffffffffffffffffffffffffffffff1614610e9c57610e60610e9e565b6040517f118cdaa7000000000000000000000000000000000000000000000000000000008152600401610e9391906123de565b60405180910390fd5b565b5f33905090565b5f73ffffffffffffffffffffffffffffffffffffffff168473ffffffffffffffffffffffffffffffffffffffff1603610f15575f6040517f57f447ce000000000000000000000000000000000000000000000000000000008152600401610f0c91906123de565b60405180910390fd5b5f73ffffffffffffffffffffffffffffffffffffffff168573ffffffffffffffffffffffffffffffffffffffff1603610f85575f6040517f01a83514000000000000000000000000000000000000000000000000000000008152600401610f7c91906123de565b60405180910390fd5b610f928585858585611386565b5050505050565b5f60208202602084010151905092915050565b5f60208202602084010151905092915050565b5f60035f9054906101000a900473ffffffffffffffffffffffffffffffffffffffff1690508160035f6101000a81548173ffffffffffffffffffffffffffffffffffffffff021916908373ffffffffffffffffffffffffffffffffffffffff1602179055508173ffffffffffffffffffffffffffffffffffffffff168173ffffffffffffffffffffffffffffffffffffffff167f8be0079c531659141344cd1fd0a4f28419497f9722a3daafe3b4186f6b6457e060405160405180910390a35050565b5f73ffffffffffffffffffffffffffffffffffffffff168273ffffffffffffffffffffffffffffffffffffffff16036110f2575f6040517fced3e1000000000000000000000000000000000000000000000000000000000081526004016110e991906123de565b60405180910390fd5b8060015f8573ffffffffffffffffffffffffffffffffffffffff1673ffffffffffffffffffffffffffffffffffffffff1681526020019081526020015f205f8473ffffffffffffffffffffffffffffffffffffffff1673ffffffffffffffffffffffffffffffffffffffff1681526020019081526020015f205f6101000a81548160ff0219169083151502179055508173ffffffffffffffffffffffffffffffffffffffff168373ffffffffffffffffffffffffffffffffffffffff167f17307eab39ab6107e8899845ad3d59bd9653f200f220920489ca2b5937696c31836040516111de9190611cf1565b60405180910390a3505050565b5f73ffffffffffffffffffffffffffffffffffffffff168473ffffffffffffffffffffffffffffffffffffffff160361125b575f6040517f57f447ce00000000000000000000000000000000000000000000000000000000815260040161125291906123de565b60405180910390fd5b5f5f6112678585611432565b915091506112785f87848487611386565b505050505050565b5f73ffffffffffffffffffffffffffffffffffffffff168473ffffffffffffffffffffffffffffffffffffffff16036112f0575f6040517f57f447ce0000000000000000000000000000000000000000000000000000000081526004016112e791906123de565b60405180910390fd5b5f73ffffffffffffffffffffffffffffffffffffffff168573ffffffffffffffffffffffffffffffffffffffff1603611360575f6040517f01a8351400000000000000000000000000000000000000000000000000000000815260040161135791906123de565b60405180910390fd5b5f5f61136c8585611432565b9150915061137d8787848487611386565b50505050505050565b61139285858585611462565b5f73ffffffffffffffffffffffffffffffffffffffff168473ffffffffffffffffffffffffffffffffffffffff161461142b575f6113ce610e9e565b9050600184510361141a575f6113ed5f86610fac90919063ffffffff16565b90505f6114035f86610fac90919063ffffffff16565b90506114138389898585896117f5565b5050611429565b6114288187878787876119a4565b5b505b5050505050565b60608060405191506001825283602083015260408201905060018152826020820152604081016040529250929050565b80518251146114ac57815181516040517f5b0599910000000000000000000000000000000000000000000000000000000081526004016114a3929190612982565b60405180910390fd5b5f6114b5610e9e565b90505f5f90505b83518110156116b4575f6114d98286610fac90919063ffffffff16565b90505f6114ef8386610fac90919063ffffffff16565b90505f73ffffffffffffffffffffffffffffffffffffffff168873ffffffffffffffffffffffffffffffffffffffff1614611612575f5f5f8481526020019081526020015f205f8a73ffffffffffffffffffffffffffffffffffffffff1673ffffffffffffffffffffffffffffffffffffffff1681526020019081526020015f20549050818110156115be57888183856040517f03dee4c50000000000000000000000000000000000000000000000000000000081526004016115b59493929190612aa6565b60405180910390fd5b8181035f5f8581526020019081526020015f205f8b73ffffffffffffffffffffffffffffffffffffffff1673ffffffffffffffffffffffffffffffffffffffff1681526020019081526020015f2081905550505b5f73ffffffffffffffffffffffffffffffffffffffff168773ffffffffffffffffffffffffffffffffffffffff16146116a757805f5f8481526020019081526020015f205f8973ffffffffffffffffffffffffffffffffffffffff1673ffffffffffffffffffffffffffffffffffffffff1681526020019081526020015f205f82825461169f9190612ae9565b925050819055505b50508060010190506114bc565b50600183510361176f575f6116d25f85610fac90919063ffffffff16565b90505f6116e85f85610fac90919063ffffffff16565b90508573ffffffffffffffffffffffffffffffffffffffff168773ffffffffffffffffffffffffffffffffffffffff168473ffffffffffffffffffffffffffffffffffffffff167fc3d58168c5ae7397731d063d5bbf3d657854427343f4c083240f7aacaa2d0f628585604051611760929190612982565b60405180910390a450506117ee565b8373ffffffffffffffffffffffffffffffffffffffff168573ffffffffffffffffffffffffffffffffffffffff168273ffffffffffffffffffffffffffffffffffffffff167f4a39dc06d4c0dbc64b70af90fd698a233a518aa5d07e595d983b8c0526c8f7fb86866040516117e5929190612b1c565b60405180910390a45b5050505050565b5f8473ffffffffffffffffffffffffffffffffffffffff163b111561199c578373ffffffffffffffffffffffffffffffffffffffff1663f23a6e6187878686866040518663ffffffff1660e01b8152600401611855959493929190612ba3565b6020604051808303815f875af192505050801561189057506040513d601f19601f8201168201806040525081019061188d9190612c0f565b60015b611911573d805f81146118be576040519150601f19603f3d011682016040523d82523d5f602084013e6118c3565b606091505b505f81510361190957846040517f57f447ce00000000000000000000000000000000000000000000000000000000815260040161190091906123de565b60405180910390fd5b805181602001fd5b63f23a6e6160e01b7bffffffffffffffffffffffffffffffffffffffffffffffffffffffff1916817bffffffffffffffffffffffffffffffffffffffffffffffffffffffff19161461199a57846040517f57f447ce00000000000000000000000000000000000000000000000000000000815260040161199191906123de565b60405180910390fd5b505b505050505050565b5f8473ffffffffffffffffffffffffffffffffffffffff163b1115611b4b578373ffffffffffffffffffffffffffffffffffffffff1663bc197c8187878686866040518663ffffffff1660e01b8152600401611a04959493929190612c3a565b6020604051808303815f875af1925050508015611a3f57506040513d601f19601f82011682018060405250810190611a3c9190612c0f565b60015b611ac0573d805f8114611a6d576040519150601f19603f3d011682016040523d82523d5f602084013e611a72565b606091505b505f815103611ab857846040517f57f447ce000000000000000000000000000000000000000000000000000000008152600401611aaf91906123de565b60405180910390fd5b805181602001fd5b63bc197c8160e01b7bffffffffffffffffffffffffffffffffffffffffffffffffffffffff1916817bffffffffffffffffffffffffffffffffffffffffffffffffffffffff191614611b4957846040517f57f447ce000000000000000000000000000000000000000000000000000000008152600401611b4091906123de565b60405180910390fd5b505b505050505050565b5f604051905090565b5f5ffd5b5f5ffd5b5f73ffffffffffffffffffffffffffffffffffffffff82169050919050565b5f611b8d82611b64565b9050919050565b611b9d81611b83565b8114611ba7575f5ffd5b50565b5f81359050611bb881611b94565b92915050565b5f819050919050565b611bd081611bbe565b8114611bda575f5ffd5b50565b5f81359050611beb81611bc7565b92915050565b5f5f60408385031215611c0757611c06611b5c565b5b5f611c1485828601611baa565b9250506020611c2585828601611bdd565b9150509250929050565b611c3881611bbe565b82525050565b5f602082019050611c515f830184611c2f565b92915050565b5f7fffffffff0000000000000000000000000000000000000000000000000000000082169050919050565b611c8b81611c57565b8114611c95575f5ffd5b50565b5f81359050611ca681611c82565b92915050565b5f60208284031215611cc157611cc0611b5c565b5b5f611cce84828501611c98565b91505092915050565b5f8115159050919050565b611ceb81611cd7565b82525050565b5f602082019050611d045f830184611ce2565b92915050565b5f60208284031215611d1f57611d1e611b5c565b5b5f611d2c84828501611bdd565b91505092915050565b5f81519050919050565b5f82825260208201905092915050565b8281835e5f83830152505050565b5f601f19601f8301169050919050565b5f611d7782611d35565b611d818185611d3f565b9350611d91818560208601611d4f565b611d9a81611d5d565b840191505092915050565b5f6020820190508181035f830152611dbd8184611d6d565b905092915050565b5f5ffd5b5f5ffd5b7f4e487b71000000000000000000000000000000000000000000000000000000005f52604160045260245ffd5b611e0382611d5d565b810181811067ffffffffffffffff82111715611e2257611e21611dcd565b5b80604052505050565b5f611e34611b53565b9050611e408282611dfa565b919050565b5f67ffffffffffffffff821115611e5f57611e5e611dcd565b5b611e6882611d5d565b9050602081019050919050565b828183375f83830152505050565b5f611e95611e9084611e45565b611e2b565b905082815260208101848484011115611eb157611eb0611dc9565b5b611ebc848285611e75565b509392505050565b5f82601f830112611ed857611ed7611dc5565b5b8135611ee8848260208601611e83565b91505092915050565b5f5f5f60608486031215611f0857611f07611b5c565b5b5f84013567ffffffffffffffff811115611f2557611f24611b60565b5b611f3186828701611ec4565b935050602084013567ffffffffffffffff811115611f5257611f51611b60565b5b611f5e86828701611ec4565b925050604084013567ffffffffffffffff811115611f7f57611f7e611b60565b5b611f8b86828701611ec4565b9150509250925092565b5f67ffffffffffffffff821115611faf57611fae611dcd565b5b602082029050602081019050919050565b5f5ffd5b5f611fd6611fd184611f95565b611e2b565b90508083825260208201905060208402830185811115611ff957611ff8611fc0565b5b835b81811015612022578061200e8882611bdd565b845260208401935050602081019050611ffb565b5050509392505050565b5f82601f8301126120405761203f611dc5565b5b8135612050848260208601611fc4565b91505092915050565b5f67ffffffffffffffff82111561207357612072611dcd565b5b61207c82611d5d565b9050602081019050919050565b5f61209b61209684612059565b611e2b565b9050828152602081018484840111156120b7576120b6611dc9565b5b6120c2848285611e75565b509392505050565b5f82601f8301126120de576120dd611dc5565b5b81356120ee848260208601612089565b91505092915050565b5f5f5f5f5f60a086880312156121105761210f611b5c565b5b5f61211d88828901611baa565b955050602061212e88828901611baa565b945050604086013567ffffffffffffffff81111561214f5761214e611b60565b5b61215b8882890161202c565b935050606086013567ffffffffffffffff81111561217c5761217b611b60565b5b6121888882890161202c565b925050608086013567ffffffffffffffff8111156121a9576121a8611b60565b5b6121b5888289016120ca565b9150509295509295909350565b5f67ffffffffffffffff8211156121dc576121db611dcd565b5b602082029050602081019050919050565b5f6121ff6121fa846121c2565b611e2b565b9050808382526020820190506020840283018581111561222257612221611fc0565b5b835b8181101561224b57806122378882611baa565b845260208401935050602081019050612224565b5050509392505050565b5f82601f83011261226957612268611dc5565b5b81356122798482602086016121ed565b91505092915050565b5f5f6040838503121561229857612297611b5c565b5b5f83013567ffffffffffffffff8111156122b5576122b4611b60565b5b6122c185828601612255565b925050602083013567ffffffffffffffff8111156122e2576122e1611b60565b5b6122ee8582860161202c565b9150509250929050565b5f81519050919050565b5f82825260208201905092915050565b5f819050602082019050919050565b61232a81611bbe565b82525050565b5f61233b8383612321565b60208301905092915050565b5f602082019050919050565b5f61235d826122f8565b6123678185612302565b935061237283612312565b805f5b838110156123a25781516123898882612330565b975061239483612347565b925050600181019050612375565b5085935050505092915050565b5f6020820190508181035f8301526123c78184612353565b905092915050565b6123d881611b83565b82525050565b5f6020820190506123f15f8301846123cf565b92915050565b5f60808201905061240a5f830187611c2f565b818103602083015261241c8186611d6d565b905081810360408301526124308185611d6d565b905081810360608301526124448184611d6d565b905095945050505050565b61245881611cd7565b8114612462575f5ffd5b50565b5f813590506124738161244f565b92915050565b5f5f6040838503121561248f5761248e611b5c565b5b5f61249c85828601611baa565b92505060206124ad85828601612465565b9150509250929050565b5f5f604083850312156124cd576124cc611b5c565b5b5f6124da85828601611baa565b92505060206124eb85828601611baa565b9150509250929050565b5f5f5f5f5f60a0868803121561250e5761250d611b5c565b5b5f61251b88828901611baa565b955050602061252c88828901611baa565b945050604061253d88828901611bdd565b935050606061254e88828901611bdd565b925050608086013567ffffffffffffffff81111561256f5761256e611b60565b5b61257b888289016120ca565b9150509295509295909350565b5f6020828403121561259d5761259c611b5c565b5b5f6125aa84828501611baa565b91505092915050565b7f496e76616c6964206261646765204944000000000000000000000000000000005f82015250565b5f6125e7601083611d3f565b91506125f2826125b3565b602082019050919050565b5f6020820190508181035f830152612614816125db565b9050919050565b7f4e487b71000000000000000000000000000000000000000000000000000000005f52602260045260245ffd5b5f600282049050600182168061265f57607f821691505b6020821081036126725761267161261b565b5b50919050565b7f4e487b71000000000000000000000000000000000000000000000000000000005f52601160045260245ffd5b5f6126af82611bbe565b91507fffffffffffffffffffffffffffffffffffffffffffffffffffffffffffffffff82036126e1576126e0612678565b5b600182019050919050565b5f819050815f5260205f209050919050565b5f6020601f8301049050919050565b5f82821b905092915050565b5f600883026127487fffffffffffffffffffffffffffffffffffffffffffffffffffffffffffffffff8261270d565b612752868361270d565b95508019841693508086168417925050509392505050565b5f819050919050565b5f61278d61278861278384611bbe565b61276a565b611bbe565b9050919050565b5f819050919050565b6127a683612773565b6127ba6127b282612794565b848454612719565b825550505050565b5f5f905090565b6127d16127c2565b6127dc81848461279d565b505050565b5b818110156127ff576127f45f826127c9565b6001810190506127e2565b5050565b601f82111561284457612815816126ec565b61281e846126fe565b8101602085101561282d578190505b612841612839856126fe565b8301826127e1565b50505b505050565b5f82821c905092915050565b5f6128645f1984600802612849565b1980831691505092915050565b5f61287c8383612855565b9150826002028217905092915050565b61289582611d35565b67ffffffffffffffff8111156128ae576128ad611dcd565b5b6128b88254612648565b6128c3828285612803565b5f60209050601f8311600181146128f4575f84156128e2578287015190505b6128ec8582612871565b865550612953565b601f198416612902866126ec565b5f5b8281101561292957848901518255600182019150602085019450602081019050612904565b868310156129465784890151612942601f891682612855565b8355505b6001600288020188555050505b505050505050565b5f60408201905061296e5f8301856123cf565b61297b60208301846123cf565b9392505050565b5f6040820190506129955f830185611c2f565b6129a26020830184611c2f565b9392505050565b7f4e487b71000000000000000000000000000000000000000000000000000000005f52603260045260245ffd5b7f5573657220616c726561647920686173207468697320626164676500000000005f82015250565b5f612a0a601b83611d3f565b9150612a15826129d6565b602082019050919050565b5f6020820190508181035f830152612a37816129fe565b9050919050565b7f496e76616c6964206261646765000000000000000000000000000000000000005f82015250565b5f612a72600d83611d3f565b9150612a7d82612a3e565b602082019050919050565b5f6020820190508181035f830152612a9f81612a66565b9050919050565b5f608082019050612ab95f8301876123cf565b612ac66020830186611c2f565b612ad36040830185611c2f565b612ae06060830184611c2f565b95945050505050565b5f612af382611bbe565b9150612afe83611bbe565b9250828201905080821115612b1657612b15612678565b5b92915050565b5f6040820190508181035f830152612b348185612353565b90508181036020830152612b488184612353565b90509392505050565b5f81519050919050565b5f82825260208201905092915050565b5f612b7582612b51565b612b7f8185612b5b565b9350612b8f818560208601611d4f565b612b9881611d5d565b840191505092915050565b5f60a082019050612bb65f8301886123cf565b612bc360208301876123cf565b612bd06040830186611c2f565b612bdd6060830185611c2f565b8181036080830152612bef8184612b6b565b90509695505050505050565b5f81519050612c0981611c82565b92915050565b5f60208284031215612c2457612c23611b5c565b5b5f612c3184828501612bfb565b91505092915050565b5f60a082019050612c4d5f8301886123cf565b612c5a60208301876123cf565b8181036040830152612c6c8186612353565b90508181036060830152612c808185612353565b90508181036080830152612c948184612b6b565b9050969550505050505056fea264697066735822122084c0d08ee06ddb0717d5404f2d13dae04e825e15701a3d289d1fca004eb04d6864736f6c634300081e0033","linkReferences":{}},"methodIdentifiers":{"badgeCount()":"5b806645","badges(uint256)":"98e36d8b","balanceOf(address,uint256)":"00fdd58e","balanceOfBatch(address[],uint256[])":"4e1273f4","createBadge(string,string,string)":"17155659","hasBadge(address,uint256)":"4c6a70ce","isApprovedForAll(address,address)":"e985e9c5","mintBadge(address,uint256)":"e42bff66","owner()":"8da5cb5b","renounceOwnership()":"715018a6","safeBatchTransferFrom(address,address,uint256[],uint256[],bytes)":"2eb2c2d6","safeTransferFrom(address,address,uint256,uint256,bytes)":"f242432a","setApprovalForAll(address,bool)":"a22cb465","supportsInterface(bytes4)":"01ffc9a7","transferOwnership(address)":"f2fde38b","uri(uint256)":"0e89341c"},"id":44}