{"abi":[{"type":"constructor","inputs":[{"name":"_syncToken","type":"address","internalType":"address"},{"name":"initialOwner","type":"address","internalType":"address"}],"stateMutability":"nonpayable"},{"type":"function","name":"PROJECT_REWARD","inputs":[],"outputs":[{"name":"","type":"uint256","internalType":"uint256"}],"stateMutability":"view"},{"type":"function","name":"addCreator","inputs":[{"name":"creator","type":"address","internalType":"address"}],"outputs":[],"stateMutability":"nonpayable"},{"type":"function","name":"courseCount","inputs":[],"outputs":[{"name":"","type":"uint256","internalType":"uint256"}],"stateMutability":"view"},{"type":"function","name":"courses","inputs":[{"name":"","type":"uint256","internalType":"uint256"}],"outputs":[{"name":"id","type":"uint256","internalType":"uint256"},{"name":"title","type":"string","internalType":"string"},{"name":"description","type":"string","internalType":"string"},{"name":"ipfsHash","type":"string","internalType":"string"},{"name":"price","type":"uint256","internalType":"uint256"},{"name":"isActive","type":"bool","internalType":"bool"}],"stateMutability":"view"},{"type":"function","name":"createCourse","inputs":[{"name":"title","type":"string","internalType":"string"},{"name":"description","type":"string","internalType":"string"},{"name":"ipfsHash","type":"string","internalType":"string"},{"name":"price","type":"uint256","internalType":"uint256"}],"outputs":[],"stateMutability":"nonpayable"},{"type":"function","name":"getCourse","inputs":[{"name":"courseId","type":"uint256","internalType":"uint256"}],"outputs":[{"name":"title","type":"string","internalType":"string"},{"name":"description","type":"string","internalType":"string"},{"name":"price","type":"uint256","internalType":"uint256"},{"name":"isActive","type":"bool","internalType":"bool"}],"stateMutability":"view"},{"type":"function","name":"getCourseContent","inputs":[{"name":"courseId","type":"uint256","internalType":"uint256"}],"outputs":[{"name":"ipfsHash","type":"string","internalType":"string"}],"stateMutability":"view"},{"type":"function","name":"hasPurchased","inputs":[{"name":"","type":"address","internalType":"address"},{"name":"","type":"uint256","internalType":"uint256"}],"outputs":[{"name":"","type":"bool","internalType":"bool"}],"stateMutability":"view"},{"type":"function","name":"isCreator","inputs":[{"name":"","type":"address","internalType":"address"}],"outputs":[{"name":"","type":"bool","internalType":"bool"}],"stateMutability":"view"},{"type":"function","name":"mintProjectReward","inputs":[{"name":"user","type":"address","internalType":"address"},{"name":"courseId","type":"uint256","internalType":"uint256"}],"outputs":[],"stateMutability":"nonpayable"},{"type":"function","name":"owner","inputs":[],"outputs":[{"name":"","type":"address","internalType":"address"}],"stateMutability":"view"},{"type":"function","name":"projectRewardClaimed","inputs":[{"name":"","type":"address","internalType":"address"},{"name":"","type":"uint256","internalType":"uint256"}],"outputs":[{"name":"","type":"bool","internalType":"bool"}],"stateMutability":"view"},{"type":"function","name":"projectSubmitted","inputs":[{"name":"","type":"address","internalType":"address"},{"name":"","type":"uint256","internalType":"uint256"}],"outputs":[{"name":"","type":"bool","internalType":"bool"}],"stateMutability":"view"},{"type":"function","name":"purchaseCourse","inputs":[{"name":"courseId","type":"uint256","internalType":"uint256"}],"outputs":[],"stateMutability":"nonpayable"},{"type":"function","name":"removeCreator","inputs":[{"name":"creator","type":"address","internalType":"address"}],"outputs":[],"stateMutability":"nonpayable"},{"type":"function","name":"renounceOwnership","inputs":[],"outputs":[],"stateMutability":"nonpayable"},{"type":"function","name":"setCourseActive","inputs":[{"name":"courseId","type":"uint256","internalType":"uint256"},{"name":"active","type":"bool","internalType":"bool"}],"outputs":[],"stateMutability":"nonpayable"},{"type":"function","name":"submitProject","inputs":[{"name":"courseId","type":"uint256","internalType":"uint256"},{"name":"","type":"string","internalType":"string"}],"outputs":[],"stateMutability":"nonpayable"},{"type":"function","name":"syncToken","inputs":[],"outputs":[{"name":"","type":"address","internalType":"contract SyncToken"}],"stateMutability":"view"},{"type":"function","name":"transferOwnership","inputs":[{"name":"newOwner","type":"address","internalType":"address"}],"outputs":[],"stateMutability":"nonpayable"},{"type":"function","name":"withdrawTokens","inputs":[{"name":"to","type":"address","internalType":"address"}],"outputs":[],"stateMutability":"nonpayable"},{"type":"event","name":"CourseCreated","inputs":[{"name":"courseId","type":"uint256","indexed":true,"internalType":"uint256"},{"name":"title","type":"string","indexed":false,"internalType":"string"},{"name":"price","type":"uint256","indexed":false,"internalType":"uint256"}],"anonymous":false},{"type":"event","name":"CoursePurchased","inputs":[{"name":"user","type":"address","indexed":true,"internalType":"address"},{"name":"courseId","type":"uint256","indexed":true,"internalType":"uint256"}],"anonymous":false},{"type":"event","name":"OwnershipTransferred","inputs":[{"name":"previousOwner","type":"address","indexed":true,"internalType":"address"},{"name":"newOwner","type":"address","indexed":true,"internalType":"address"}],"anonymous":false},{"type":"event","name":"ProjectRewardMinted","inputs":[{"name":"user","type":"address","indexed":true,"internalType":"address"},{"name":"courseId","type":"uint256","indexed":false,"internalType":"uint256"},{"name":"amount","type":"uint256","indexed":false,"internalType":"uint256"}],"anonymous":false},{"type":"error","name":"OwnableInvalidOwner","inputs":[{"name":"owner","type":"address","internalType":"address"}]},{"type":"error","name":"OwnableUnauthorizedAccount","inputs":[{"name":"account","type":"address","internalType":"address"}]}],"bytecode":{"object":"0x608060405234801561000f575f5ffd5b50604051612c3b380380612c3b83398181016040528101906100319190610218565b805f73ffffffffffffffffffffffffffffffffffffffff168173ffffffffffffffffffffffffffffffffffffffff16036100a2575f6040517f1e4fbdf70000000000000000000000000000000000000000000000000000000081526004016100999190610265565b60405180910390fd5b6100b1816100f960201b60201c565b508160015f6101000a81548173ffffffffffffffffffffffffffffffffffffffff021916908373ffffffffffffffffffffffffffffffffffffffff160217905550505061027e565b5f5f5f9054906101000a900473ffffffffffffffffffffffffffffffffffffffff169050815f5f6101000a81548173ffffffffffffffffffffffffffffffffffffffff021916908373ffffffffffffffffffffffffffffffffffffffff1602179055508173ffffffffffffffffffffffffffffffffffffffff168173ffffffffffffffffffffffffffffffffffffffff167f8be0079c531659141344cd1fd0a4f28419497f9722a3daafe3b4186f6b6457e060405160405180910390a35050565b5f5ffd5b5f73ffffffffffffffffffffffffffffffffffffffff82169050919050565b5f6101e7826101be565b9050919050565b6101f7816101dd565b8114610201575f5ffd5b50565b5f81519050610212816101ee565b92915050565b5f5f6040838503121561022e5761022d6101ba565b5b5f61023b85828601610204565b925050602061024c85828601610204565b9150509250929050565b61025f816101dd565b82525050565b5f6020820190506102785f830184610256565b92915050565b6129b08061028b5f395ff3fe608060405234801561000f575f5ffd5b5060043610610135575f3560e01c8063715018a6116100b6578063c82eff821161007a578063c82eff8214610351578063cd1319381461036d578063d3236b6914610389578063ed4c1d97146103a5578063efd46065146103c3578063f2fde38b146103f357610135565b8063715018a6146102bc5780638af525aa146102c65780638da5cb5b146102e257806396f979d214610300578063bd6018bb1461033557610135565b80632ee3164d116100fd5780632ee3164d146102065780633b9dce05146102365780633e5984421461025257806349df728c14610282578063660551591461029e57610135565b80630b91e28d14610139578063119231321461016c57806317cb7d7c1461019c5780631ffa9110146101b857806327d611bd146101d6575b5f5ffd5b610153600480360381019061014e9190611a70565b61040f565b6040516101639493929190611b34565b60405180910390f35b61018660048036038101906101819190611bdf565b610634565b6040516101939190611c1d565b60405180910390f35b6101b660048036038101906101b19190611d62565b61065e565b005b6101c06107fb565b6040516101cd9190611e1a565b60405180910390f35b6101f060048036038101906101eb9190611a70565b610807565b6040516101fd9190611e33565b60405180910390f35b610220600480360381019061021b9190611bdf565b610943565b60405161022d9190611c1d565b60405180910390f35b610250600480360381019061024b9190611e53565b61096d565b005b61026c60048036038101906102679190611bdf565b6109cd565b6040516102799190611c1d565b60405180910390f35b61029c60048036038101906102979190611e53565b6109f7565b005b6102a6610b7a565b6040516102b39190611e1a565b60405180910390f35b6102c4610b80565b005b6102e060048036038101906102db9190611bdf565b610b93565b005b6102ea610f85565b6040516102f79190611e8d565b60405180910390f35b61031a60048036038101906103159190611a70565b610fac565b60405161032c96959493929190611ea6565b60405180910390f35b61034f600480360381019061034a9190611e53565b611182565b005b61036b60048036038101906103669190611f1a565b6111e1565b005b61038760048036038101906103829190611a70565b61137a565b005b6103a3600480360381019061039e9190611f9e565b6117e0565b005b6103ad611817565b6040516103ba9190612037565b60405180910390f35b6103dd60048036038101906103d89190611e53565b61183c565b6040516103ea9190611c1d565b60405180910390f35b61040d60048036038101906104089190611e53565b611859565b005b6060805f5f5f60035f8781526020019081526020015f206040518060c00160405290815f820154815260200160018201805461044a9061207d565b80601f01602080910402602001604051908101604052809291908181526020018280546104769061207d565b80156104c15780601f10610498576101008083540402835291602001916104c1565b820191905f5260205f20905b8154815290600101906020018083116104a457829003601f168201915b505050505081526020016002820180546104da9061207d565b80601f01602080910402602001604051908101604052809291908181526020018280546105069061207d565b80156105515780601f1061052857610100808354040283529160200191610551565b820191905f5260205f20905b81548152906001019060200180831161053457829003601f168201915b5050505050815260200160038201805461056a9061207d565b80601f01602080910402602001604051908101604052809291908181526020018280546105969061207d565b80156105e15780601f106105b8576101008083540402835291602001916105e1565b820191905f5260205f20905b8154815290600101906020018083116105c457829003601f168201915b5050505050815260200160048201548152602001600582015f9054906101000a900460ff16151515158152505090508060200151816040015182608001518360a001519450945094509450509193509193565b6004602052815f5260405f20602052805f5260405f205f915091509054906101000a900460ff1681565b60075f3373ffffffffffffffffffffffffffffffffffffffff1673ffffffffffffffffffffffffffffffffffffffff1681526020019081526020015f205f9054906101000a900460ff166106e7576040517f08c379a00000000000000000000000000000000000000000000000000000000081526004016106de9061211d565b60405180910390fd5b60025f8154809291906106f990612168565b91905055506040518060c0016040528060025481526020018581526020018481526020018381526020018281526020016001151581525060035f60025481526020019081526020015f205f820151815f015560208201518160010190816107609190612346565b5060408201518160020190816107769190612346565b50606082015181600301908161078c9190612346565b506080820151816004015560a0820151816005015f6101000a81548160ff0219169083151502179055509050506002547f642f95fc4f73850f9892227ccee20fac4904ba0645894b644766d21a1a8d820585836040516107ed929190612415565b60405180910390a250505050565b678ac7230489e8000081565b606060045f3373ffffffffffffffffffffffffffffffffffffffff1673ffffffffffffffffffffffffffffffffffffffff1681526020019081526020015f205f8381526020019081526020015f205f9054906101000a900460ff166108a1576040517f08c379a0000000000000000000000000000000000000000000000000000000008152600401610898906124b3565b60405180910390fd5b60035f8381526020019081526020015f2060030180546108c09061207d565b80601f01602080910402602001604051908101604052809291908181526020018280546108ec9061207d565b80156109375780601f1061090e57610100808354040283529160200191610937565b820191905f5260205f20905b81548152906001019060200180831161091a57829003601f168201915b50505050509050919050565b6006602052815f5260405f20602052805f5260405f205f915091509054906101000a900460ff1681565b6109756118dd565b600160075f8373ffffffffffffffffffffffffffffffffffffffff1673ffffffffffffffffffffffffffffffffffffffff1681526020019081526020015f205f6101000a81548160ff02191690831515021790555050565b6005602052815f5260405f20602052805f5260405f205f915091509054906101000a900460ff1681565b6109ff6118dd565b5f60015f9054906101000a900473ffffffffffffffffffffffffffffffffffffffff1673ffffffffffffffffffffffffffffffffffffffff166370a08231306040518263ffffffff1660e01b8152600401610a5a9190611e8d565b602060405180830381865afa158015610a75573d5f5f3e3d5ffd5b505050506040513d601f19601f82011682018060405250810190610a9991906124e5565b905060015f9054906101000a900473ffffffffffffffffffffffffffffffffffffffff1673ffffffffffffffffffffffffffffffffffffffff1663a9059cbb83836040518363ffffffff1660e01b8152600401610af7929190612510565b6020604051808303815f875af1158015610b13573d5f5f3e3d5ffd5b505050506040513d601f19601f82011682018060405250810190610b37919061254b565b610b76576040517f08c379a0000000000000000000000000000000000000000000000000000000008152600401610b6d906125c0565b60405180910390fd5b5050565b60025481565b610b886118dd565b610b915f611964565b565b60045f8373ffffffffffffffffffffffffffffffffffffffff1673ffffffffffffffffffffffffffffffffffffffff1681526020019081526020015f205f8281526020019081526020015f205f9054906101000a900460ff16610c2b576040517f08c379a0000000000000000000000000000000000000000000000000000000008152600401610c2290612628565b60405180910390fd5b60055f8373ffffffffffffffffffffffffffffffffffffffff1673ffffffffffffffffffffffffffffffffffffffff1681526020019081526020015f205f8281526020019081526020015f205f9054906101000a900460ff16610cc3576040517f08c379a0000000000000000000000000000000000000000000000000000000008152600401610cba90612690565b60405180910390fd5b60065f8373ffffffffffffffffffffffffffffffffffffffff1673ffffffffffffffffffffffffffffffffffffffff1681526020019081526020015f205f8281526020019081526020015f205f9054906101000a900460ff1615610d5c576040517f08c379a0000000000000000000000000000000000000000000000000000000008152600401610d53906126f8565b60405180910390fd5b60015f9054906101000a900473ffffffffffffffffffffffffffffffffffffffff1673ffffffffffffffffffffffffffffffffffffffff1663aa2fe91b336040518263ffffffff1660e01b8152600401610db69190611e8d565b602060405180830381865afa158015610dd1573d5f5f3e3d5ffd5b505050506040513d601f19601f82011682018060405250810190610df5919061254b565b610e34576040517f08c379a0000000000000000000000000000000000000000000000000000000008152600401610e2b90612760565b60405180910390fd5b600160065f8473ffffffffffffffffffffffffffffffffffffffff1673ffffffffffffffffffffffffffffffffffffffff1681526020019081526020015f205f8381526020019081526020015f205f6101000a81548160ff02191690831515021790555060015f9054906101000a900473ffffffffffffffffffffffffffffffffffffffff1673ffffffffffffffffffffffffffffffffffffffff166340c10f1983678ac7230489e800006040518363ffffffff1660e01b8152600401610efc929190612510565b5f604051808303815f87803b158015610f13575f5ffd5b505af1158015610f25573d5f5f3e3d5ffd5b505050508173ffffffffffffffffffffffffffffffffffffffff167f60b986992fe6a9ac650567ad9539b1ca4c064dd72bb3fff38886963bbec704e182678ac7230489e80000604051610f7992919061277e565b60405180910390a25050565b5f5f5f9054906101000a900473ffffffffffffffffffffffffffffffffffffffff16905090565b6003602052805f5260405f205f91509050805f015490806001018054610fd19061207d565b80601f0160208091040260200160405190810160405280929190818152602001828054610ffd9061207d565b80156110485780601f1061101f57610100808354040283529160200191611048565b820191905f5260205f20905b81548152906001019060200180831161102b57829003601f168201915b50505050509080600201805461105d9061207d565b80601f01602080910402602001604051908101604052809291908181526020018280546110899061207d565b80156110d45780601f106110ab576101008083540402835291602001916110d4565b820191905f5260205f20905b8154815290600101906020018083116110b757829003601f168201915b5050505050908060030180546110e99061207d565b80601f01602080910402602001604051908101604052809291908181526020018280546111159061207d565b80156111605780601f1061113757610100808354040283529160200191611160565b820191905f5260205f20905b81548152906001019060200180831161114357829003601f168201915b505050505090806004015490806005015f9054906101000a900460ff16905086565b61118a6118dd565b5f60075f8373ffffffffffffffffffffffffffffffffffffffff1673ffffffffffffffffffffffffffffffffffffffff1681526020019081526020015f205f6101000a81548160ff02191690831515021790555050565b60045f3373ffffffffffffffffffffffffffffffffffffffff1673ffffffffffffffffffffffffffffffffffffffff1681526020019081526020015f205f8381526020019081526020015f205f9054906101000a900460ff16611279576040517f08c379a000000000000000000000000000000000000000000000000000000000815260040161127090612628565b60405180910390fd5b60055f3373ffffffffffffffffffffffffffffffffffffffff1673ffffffffffffffffffffffffffffffffffffffff1681526020019081526020015f205f8381526020019081526020015f205f9054906101000a900460ff1615611312576040517f08c379a0000000000000000000000000000000000000000000000000000000008152600401611309906127ef565b60405180910390fd5b600160055f3373ffffffffffffffffffffffffffffffffffffffff1673ffffffffffffffffffffffffffffffffffffffff1681526020019081526020015f205f8481526020019081526020015f205f6101000a81548160ff0219169083151502179055505050565b5f60035f8381526020019081526020015f206040518060c00160405290815f82015481526020016001820180546113b09061207d565b80601f01602080910402602001604051908101604052809291908181526020018280546113dc9061207d565b80156114275780601f106113fe57610100808354040283529160200191611427565b820191905f5260205f20905b81548152906001019060200180831161140a57829003601f168201915b505050505081526020016002820180546114409061207d565b80601f016020809104026020016040519081016040528092919081815260200182805461146c9061207d565b80156114b75780601f1061148e576101008083540402835291602001916114b7565b820191905f5260205f20905b81548152906001019060200180831161149a57829003601f168201915b505050505081526020016003820180546114d09061207d565b80601f01602080910402602001604051908101604052809291908181526020018280546114fc9061207d565b80156115475780601f1061151e57610100808354040283529160200191611547565b820191905f5260205f20905b81548152906001019060200180831161152a57829003601f168201915b5050505050815260200160048201548152602001600582015f9054906101000a900460ff16151515158152505090508060a001516115ba576040517f08c379a00000000000000000000000000000000000000000000000000000000081526004016115b190612857565b60405180910390fd5b60045f3373ffffffffffffffffffffffffffffffffffffffff1673ffffffffffffffffffffffffffffffffffffffff1681526020019081526020015f205f8381526020019081526020015f205f9054906101000a900460ff1615611653576040517f08c379a000000000000000000000000000000000000000000000000000000000815260040161164a906128bf565b60405180910390fd5b60015f9054906101000a900473ffffffffffffffffffffffffffffffffffffffff1673ffffffffffffffffffffffffffffffffffffffff166323b872dd333084608001516040518463ffffffff1660e01b81526004016116b5939291906128dd565b6020604051808303815f875af11580156116d1573d5f5f3e3d5ffd5b505050506040513d601f19601f820116820180604052508101906116f5919061254b565b611734576040517f08c379a000000000000000000000000000000000000000000000000000000000815260040161172b9061295c565b60405180910390fd5b600160045f3373ffffffffffffffffffffffffffffffffffffffff1673ffffffffffffffffffffffffffffffffffffffff1681526020019081526020015f205f8481526020019081526020015f205f6101000a81548160ff021916908315150217905550813373ffffffffffffffffffffffffffffffffffffffff167fe5ad1c2d1ba3b171c8cd1cab50ec342a17e4c839c0562afe6328e29c7f38385e60405160405180910390a35050565b6117e86118dd565b8060035f8481526020019081526020015f206005015f6101000a81548160ff0219169083151502179055505050565b60015f9054906101000a900473ffffffffffffffffffffffffffffffffffffffff1681565b6007602052805f5260405f205f915054906101000a900460ff1681565b6118616118dd565b5f73ffffffffffffffffffffffffffffffffffffffff168173ffffffffffffffffffffffffffffffffffffffff16036118d1575f6040517f1e4fbdf70000000000000000000000000000000000000000000000000000000081526004016118c89190611e8d565b60405180910390fd5b6118da81611964565b50565b6118e5611a25565b73ffffffffffffffffffffffffffffffffffffffff16611903610f85565b73ffffffffffffffffffffffffffffffffffffffff161461196257611926611a25565b6040517f118cdaa70000000000000000000000000000000000000000000000000000000081526004016119599190611e8d565b60405180910390fd5b565b5f5f5f9054906101000a900473ffffffffffffffffffffffffffffffffffffffff169050815f5f6101000a81548173ffffffffffffffffffffffffffffffffffffffff021916908373ffffffffffffffffffffffffffffffffffffffff1602179055508173ffffffffffffffffffffffffffffffffffffffff168173ffffffffffffffffffffffffffffffffffffffff167f8be0079c531659141344cd1fd0a4f28419497f9722a3daafe3b4186f6b6457e060405160405180910390a35050565b5f33905090565b5f604051905090565b5f5ffd5b5f5ffd5b5f819050919050565b611a4f81611a3d565b8114611a59575f5ffd5b50565b5f81359050611a6a81611a46565b92915050565b5f60208284031215611a8557611a84611a35565b5b5f611a9284828501611a5c565b91505092915050565b5f81519050919050565b5f82825260208201905092915050565b8281835e5f83830152505050565b5f601f19601f8301169050919050565b5f611add82611a9b565b611ae78185611aa5565b9350611af7818560208601611ab5565b611b0081611ac3565b840191505092915050565b611b1481611a3d565b82525050565b5f8115159050919050565b611b2e81611b1a565b82525050565b5f6080820190508181035f830152611b4c8187611ad3565b90508181036020830152611b608186611ad3565b9050611b6f6040830185611b0b565b611b7c6060830184611b25565b95945050505050565b5f73ffffffffffffffffffffffffffffffffffffffff82169050919050565b5f611bae82611b85565b9050919050565b611bbe81611ba4565b8114611bc8575f5ffd5b50565b5f81359050611bd981611bb5565b92915050565b5f5f60408385031215611bf557611bf4611a35565b5b5f611c0285828601611bcb565b9250506020611c1385828601611a5c565b9150509250929050565b5f602082019050611c305f830184611b25565b92915050565b5f5ffd5b5f5ffd5b7f4e487b71000000000000000000000000000000000000000000000000000000005f52604160045260245ffd5b611c7482611ac3565b810181811067ffffffffffffffff82111715611c9357611c92611c3e565b5b80604052505050565b5f611ca5611a2c565b9050611cb18282611c6b565b919050565b5f67ffffffffffffffff821115611cd057611ccf611c3e565b5b611cd982611ac3565b9050602081019050919050565b828183375f83830152505050565b5f611d06611d0184611cb6565b611c9c565b905082815260208101848484011115611d2257611d21611c3a565b5b611d2d848285611ce6565b509392505050565b5f82601f830112611d4957611d48611c36565b5b8135611d59848260208601611cf4565b91505092915050565b5f5f5f5f60808587031215611d7a57611d79611a35565b5b5f85013567ffffffffffffffff811115611d9757611d96611a39565b5b611da387828801611d35565b945050602085013567ffffffffffffffff811115611dc457611dc3611a39565b5b611dd087828801611d35565b935050604085013567ffffffffffffffff811115611df157611df0611a39565b5b611dfd87828801611d35565b9250506060611e0e87828801611a5c565b91505092959194509250565b5f602082019050611e2d5f830184611b0b565b92915050565b5f6020820190508181035f830152611e4b8184611ad3565b905092915050565b5f60208284031215611e6857611e67611a35565b5b5f611e7584828501611bcb565b91505092915050565b611e8781611ba4565b82525050565b5f602082019050611ea05f830184611e7e565b92915050565b5f60c082019050611eb95f830189611b0b565b8181036020830152611ecb8188611ad3565b90508181036040830152611edf8187611ad3565b90508181036060830152611ef38186611ad3565b9050611f026080830185611b0b565b611f0f60a0830184611b25565b979650505050505050565b5f5f60408385031215611f3057611f2f611a35565b5b5f611f3d85828601611a5c565b925050602083013567ffffffffffffffff811115611f5e57611f5d611a39565b5b611f6a85828601611d35565b9150509250929050565b611f7d81611b1a565b8114611f87575f5ffd5b50565b5f81359050611f9881611f74565b92915050565b5f5f60408385031215611fb457611fb3611a35565b5b5f611fc185828601611a5c565b9250506020611fd285828601611f8a565b9150509250929050565b5f819050919050565b5f611fff611ffa611ff584611b85565b611fdc565b611b85565b9050919050565b5f61201082611fe5565b9050919050565b5f61202182612006565b9050919050565b61203181612017565b82525050565b5f60208201905061204a5f830184612028565b92915050565b7f4e487b71000000000000000000000000000000000000000000000000000000005f52602260045260245ffd5b5f600282049050600182168061209457607f821691505b6020821081036120a7576120a6612050565b5b50919050565b7f4f6e6c7920617070726f7665642063726561746f72732063616e2063726561745f8201527f6520636f75727365730000000000000000000000000000000000000000000000602082015250565b5f612107602983611aa5565b9150612112826120ad565b604082019050919050565b5f6020820190508181035f830152612134816120fb565b9050919050565b7f4e487b71000000000000000000000000000000000000000000000000000000005f52601160045260245ffd5b5f61217282611a3d565b91507fffffffffffffffffffffffffffffffffffffffffffffffffffffffffffffffff82036121a4576121a361213b565b5b600182019050919050565b5f819050815f5260205f209050919050565b5f6020601f8301049050919050565b5f82821b905092915050565b5f6008830261220b7fffffffffffffffffffffffffffffffffffffffffffffffffffffffffffffffff826121d0565b61221586836121d0565b95508019841693508086168417925050509392505050565b5f61224761224261223d84611a3d565b611fdc565b611a3d565b9050919050565b5f819050919050565b6122608361222d565b61227461226c8261224e565b8484546121dc565b825550505050565b5f5f905090565b61228b61227c565b612296818484612257565b505050565b5b818110156122b9576122ae5f82612283565b60018101905061229c565b5050565b601f8211156122fe576122cf816121af565b6122d8846121c1565b810160208510156122e7578190505b6122fb6122f3856121c1565b83018261229b565b50505b505050565b5f82821c905092915050565b5f61231e5f1984600802612303565b1980831691505092915050565b5f612336838361230f565b9150826002028217905092915050565b61234f82611a9b565b67ffffffffffffffff81111561236857612367611c3e565b5b612372825461207d565b61237d8282856122bd565b5f60209050601f8311600181146123ae575f841561239c578287015190505b6123a6858261232b565b86555061240d565b601f1984166123bc866121af565b5f5b828110156123e3578489015182556001820191506020850194506020810190506123be565b8683101561240057848901516123fc601f89168261230f565b8355505b6001600288020188555050505b505050505050565b5f6040820190508181035f83015261242d8185611ad3565b905061243c6020830184611b0b565b9392505050565b7f596f75206d7573742070757263686173652074686520636f75727365206669725f8201527f7374000000000000000000000000000000000000000000000000000000000000602082015250565b5f61249d602283611aa5565b91506124a882612443565b604082019050919050565b5f6020820190508181035f8301526124ca81612491565b9050919050565b5f815190506124df81611a46565b92915050565b5f602082840312156124fa576124f9611a35565b5b5f612507848285016124d1565b91505092915050565b5f6040820190506125235f830185611e7e565b6125306020830184611b0b565b9392505050565b5f8151905061254581611f74565b92915050565b5f602082840312156125605761255f611a35565b5b5f61256d84828501612537565b91505092915050565b7f5769746864726177206661696c656400000000000000000000000000000000005f82015250565b5f6125aa600f83611aa5565b91506125b582612576565b602082019050919050565b5f6020820190508181035f8301526125d78161259e565b9050919050565b7f436f75727365206e6f74207075726368617365640000000000000000000000005f82015250565b5f612612601483611aa5565b915061261d826125de565b602082019050919050565b5f6020820190508181035f83015261263f81612606565b9050919050565b7f50726f6a656374206e6f74207375626d697474656420796574000000000000005f82015250565b5f61267a601983611aa5565b915061268582612646565b602082019050919050565b5f6020820190508181035f8301526126a78161266e565b9050919050565b7f52657761726420616c726561647920636c61696d6564000000000000000000005f82015250565b5f6126e2601683611aa5565b91506126ed826126ae565b602082019050919050565b5f6020820190508181035f83015261270f816126d6565b9050919050565b7f4e6f7420617574686f72697a65640000000000000000000000000000000000005f82015250565b5f61274a600e83611aa5565b915061275582612716565b602082019050919050565b5f6020820190508181035f8301526127778161273e565b9050919050565b5f6040820190506127915f830185611b0b565b61279e6020830184611b0b565b9392505050565b7f50726f6a65637420616c7265616479207375626d6974746564000000000000005f82015250565b5f6127d9601983611aa5565b91506127e4826127a5565b602082019050919050565b5f6020820190508181035f830152612806816127cd565b9050919050565b7f436f7572736520697320696e61637469766500000000000000000000000000005f82015250565b5f612841601283611aa5565b915061284c8261280d565b602082019050919050565b5f6020820190508181035f83015261286e81612835565b9050919050565b7f416c7265616479207075726368617365640000000000000000000000000000005f82015250565b5f6128a9601183611aa5565b91506128b482612875565b602082019050919050565b5f6020820190508181035f8301526128d68161289d565b9050919050565b5f6060820190506128f05f830186611e7e565b6128fd6020830185611e7e565b61290a6040830184611b0b565b949350505050565b7f546f6b656e207472616e73666572206661696c656400000000000000000000005f82015250565b5f612946601583611aa5565b915061295182612912565b602082019050919050565b5f6020820190508181035f8301526129738161293a565b905091905056fea264697066735822122086f72468956fb51f4a0153d32e8763e04ea62eaee3bfcb093d3a8bd90d3ea91364736f6c634300081e0033","linkReferences":{}},"methodIdentifiers":{"PROJECT_REWARD()":"1ffa9110","addCreator(address)":"3b9dce05","courseCount()":"66055159","courses(uint256)":"96f979d2","createCourse(string,string,string,uint256)":"17cb7d7c","getCourse(uint256)":"0b91e28d","getCourseContent(uint256)":"27d611bd","hasPurchased(address,uint256)":"11923132","isCreator(address)":"efd46065","mintProjectReward(address,uint256)":"8af525aa","owner()":"8da5cb5b","projectRewardClaimed(address,uint256)":"2ee3164d","projectSubmitted(address,uint256)":"3e598442","purchaseCourse(uint256)":"cd131938","removeCreator(address)":"bd6018bb","renounceOwnership()":"715018a6","setCourseActive(uint256,bool)":"d3236b69","submitProject(uint256,string)":"c82eff82","syncToken()":"ed4c1d97","transferOwnership(address)":"f2fde38b","withdrawTokens(address)":"49df728c"},"id":46}