{"abi":[{"type":"constructor","inputs":[{"name":"_syncToken","type":"address","internalType":"address"},{"name":"_soulboundNFT","type":"address","internalType":"address"},{"name":"initialOwner","type":"address","internalType":"address"}],"stateMutability":"nonpayable"},{"type":"function","name":"DAILY_REWARD","inputs":[],"outputs":[{"name":"","type":"uint256","internalType":"uint256"}],"stateMutability":"view"},{"type":"function","name":"completeDailyQuiz","inputs":[{"name":"user","type":"address","internalType":"address"}],"outputs":[],"stateMutability":"nonpayable"},{"type":"function","name":"lastQuizCompleted","inputs":[{"name":"","type":"address","internalType":"address"}],"outputs":[{"name":"","type":"uint256","internalType":"uint256"}],"stateMutability":"view"},{"type":"function","name":"owner","inputs":[],"outputs":[{"name":"","type":"address","internalType":"address"}],"stateMutability":"view"},{"type":"function","name":"renounceOwnership","inputs":[],"outputs":[],"stateMutability":"nonpayable"},{"type":"function","name":"soulboundNFT","inputs":[],"outputs":[{"name":"","type":"address","internalType":"contract SoulboundReputation"}],"stateMutability":"view"},{"type":"function","name":"syncToken","inputs":[],"outputs":[{"name":"","type":"address","internalType":"contract IERC20"}],"stateMutability":"view"},{"type":"function","name":"transferOwnership","inputs":[{"name":"newOwner","type":"address","internalType":"address"}],"outputs":[],"stateMutability":"nonpayable"},{"type":"event","name":"DailyQuizCompleted","inputs":[{"name":"user","type":"address","indexed":true,"internalType":"address"},{"name":"timestamp","type":"uint256","indexed":false,"internalType":"uint256"}],"anonymous":false},{"type":"event","name":"OwnershipTransferred","inputs":[{"name":"previousOwner","type":"address","indexed":true,"internalType":"address"},{"name":"newOwner","type":"address","indexed":true,"internalType":"address"}],"anonymous":false},{"type":"error","name":"OwnableInvalidOwner","inputs":[{"name":"owner","type":"address","internalType":"address"}]},{"type":"error","name":"OwnableUnauthorizedAccount","inputs":[{"name":"account","type":"address","internalType":"address"}]}],"bytecode":{"object":"0x608060405234801561000f575f5ffd5b50604051610cdf380380610cdf83398181016040528101906100319190610259565b805f73ffffffffffffffffffffffffffffffffffffffff168173ffffffffffffffffffffffffffffffffffffffff16036100a2575f6040517f1e4fbdf700000000000000000000000000000000000000000000000000000000815260040161009991906102b8565b60405180910390fd5b6100b18161013a60201b60201c565b508260015f6101000a81548173ffffffffffffffffffffffffffffffffffffffff021916908373ffffffffffffffffffffffffffffffffffffffff1602179055508160025f6101000a81548173ffffffffffffffffffffffffffffffffffffffff021916908373ffffffffffffffffffffffffffffffffffffffff1602179055505050506102d1565b5f5f5f9054906101000a900473ffffffffffffffffffffffffffffffffffffffff169050815f5f6101000a81548173ffffffffffffffffffffffffffffffffffffffff021916908373ffffffffffffffffffffffffffffffffffffffff1602179055508173ffffffffffffffffffffffffffffffffffffffff168173ffffffffffffffffffffffffffffffffffffffff167f8be0079c531659141344cd1fd0a4f28419497f9722a3daafe3b4186f6b6457e060405160405180910390a35050565b5f5ffd5b5f73ffffffffffffffffffffffffffffffffffffffff82169050919050565b5f610228826101ff565b9050919050565b6102388161021e565b8114610242575f5ffd5b50565b5f815190506102538161022f565b92915050565b5f5f5f606084860312156102705761026f6101fb565b5b5f61027d86828701610245565b935050602061028e86828701610245565b925050604061029f86828701610245565b9150509250925092565b6102b28161021e565b82525050565b5f6020820190506102cb5f8301846102a9565b92915050565b610a01806102de5f395ff3fe608060405234801561000f575f5ffd5b5060043610610086575f3560e01c8063cf5800ba11610059578063cf5800ba14610100578063ed4c1d971461011e578063f2fde38b1461013c578063fbd30ea71461015857610086565b80630d8b54a51461008a57806354ad8b58146100ba578063715018a6146100d85780638da5cb5b146100e2575b5f5ffd5b6100a4600480360381019061009f91906106de565b610174565b6040516100b19190610721565b60405180910390f35b6100c2610189565b6040516100cf9190610795565b60405180910390f35b6100e06101ae565b005b6100ea6101c1565b6040516100f791906107bd565b60405180910390f35b6101086101e8565b6040516101159190610721565b60405180910390f35b6101266101f4565b60405161013391906107f6565b60405180910390f35b610156600480360381019061015191906106de565b610219565b005b610172600480360381019061016d91906106de565b61029d565b005b6003602052805f5260405f205f915090505481565b60025f9054906101000a900473ffffffffffffffffffffffffffffffffffffffff1681565b6101b6610531565b6101bf5f6105b8565b565b5f5f5f9054906101000a900473ffffffffffffffffffffffffffffffffffffffff16905090565b678ac7230489e8000081565b60015f9054906101000a900473ffffffffffffffffffffffffffffffffffffffff1681565b610221610531565b5f73ffffffffffffffffffffffffffffffffffffffff168173ffffffffffffffffffffffffffffffffffffffff1603610291575f6040517f1e4fbdf700000000000000000000000000000000000000000000000000000000815260040161028891906107bd565b60405180910390fd5b61029a816105b8565b50565b6102a5610531565b6201518060035f8373ffffffffffffffffffffffffffffffffffffffff1673ffffffffffffffffffffffffffffffffffffffff1681526020019081526020015f2054426102f2919061083c565b1015610333576040517f08c379a000000000000000000000000000000000000000000000000000000000815260040161032a906108c9565b60405180910390fd5b5f60025f9054906101000a900473ffffffffffffffffffffffffffffffffffffffff1673ffffffffffffffffffffffffffffffffffffffff1663af24b07b836040518263ffffffff1660e01b815260040161038e91906107bd565b602060405180830381865afa1580156103a9573d5f5f3e3d5ffd5b505050506040513d601f19601f820116820180604052508101906103cd9190610911565b0361040d576040517f08c379a000000000000000000000000000000000000000000000000000000000815260040161040490610986565b60405180910390fd5b4260035f8373ffffffffffffffffffffffffffffffffffffffff1673ffffffffffffffffffffffffffffffffffffffff1681526020019081526020015f208190555060015f9054906101000a900473ffffffffffffffffffffffffffffffffffffffff1673ffffffffffffffffffffffffffffffffffffffff166340c10f1982678ac7230489e800006040518363ffffffff1660e01b81526004016104b39291906109a4565b5f604051808303815f87803b1580156104ca575f5ffd5b505af11580156104dc573d5f5f3e3d5ffd5b505050508073ffffffffffffffffffffffffffffffffffffffff167fae27b37f8c2df3114029478e0f91a0e33a7111283e275cb487020e0ca1520aba426040516105269190610721565b60405180910390a250565b610539610679565b73ffffffffffffffffffffffffffffffffffffffff166105576101c1565b73ffffffffffffffffffffffffffffffffffffffff16146105b65761057a610679565b6040517f118cdaa70000000000000000000000000000000000000000000000000000000081526004016105ad91906107bd565b60405180910390fd5b565b5f5f5f9054906101000a900473ffffffffffffffffffffffffffffffffffffffff169050815f5f6101000a81548173ffffffffffffffffffffffffffffffffffffffff021916908373ffffffffffffffffffffffffffffffffffffffff1602179055508173ffffffffffffffffffffffffffffffffffffffff168173ffffffffffffffffffffffffffffffffffffffff167f8be0079c531659141344cd1fd0a4f28419497f9722a3daafe3b4186f6b6457e060405160405180910390a35050565b5f33905090565b5f5ffd5b5f73ffffffffffffffffffffffffffffffffffffffff82169050919050565b5f6106ad82610684565b9050919050565b6106bd816106a3565b81146106c7575f5ffd5b50565b5f813590506106d8816106b4565b92915050565b5f602082840312156106f3576106f2610680565b5b5f610700848285016106ca565b91505092915050565b5f819050919050565b61071b81610709565b82525050565b5f6020820190506107345f830184610712565b92915050565b5f819050919050565b5f61075d61075861075384610684565b61073a565b610684565b9050919050565b5f61076e82610743565b9050919050565b5f61077f82610764565b9050919050565b61078f81610775565b82525050565b5f6020820190506107a85f830184610786565b92915050565b6107b7816106a3565b82525050565b5f6020820190506107d05f8301846107ae565b92915050565b5f6107e082610764565b9050919050565b6107f0816107d6565b82525050565b5f6020820190506108095f8301846107e7565b92915050565b7f4e487b71000000000000000000000000000000000000000000000000000000005f52601160045260245ffd5b5f61084682610709565b915061085183610709565b92508282039050818111156108695761086861080f565b5b92915050565b5f82825260208201905092915050565b7f416c726561647920636c61696d656420746f64617900000000000000000000005f82015250565b5f6108b360158361086f565b91506108be8261087f565b602082019050919050565b5f6020820190508181035f8301526108e0816108a7565b9050919050565b6108f081610709565b81146108fa575f5ffd5b50565b5f8151905061090b816108e7565b92915050565b5f6020828403121561092657610925610680565b5b5f610933848285016108fd565b91505092915050565b7f4e6f2072657075746174696f6e204e46540000000000000000000000000000005f82015250565b5f61097060118361086f565b915061097b8261093c565b602082019050919050565b5f6020820190508181035f83015261099d81610964565b9050919050565b5f6040820190506109b75f8301856107ae565b6109c46020830184610712565b939250505056fea26469706673582212202b4a7a928dacf827f762e36564679b62919a7496c562bcbecc4c8454aac9739564736f6c634300081e0033","linkReferences":{}},"methodIdentifiers":{"DAILY_REWARD()":"cf5800ba","completeDailyQuiz(address)":"fbd30ea7","lastQuizCompleted(address)":"0d8b54a5","owner()":"8da5cb5b","renounceOwnership()":"715018a6","soulboundNFT()":"54ad8b58","syncToken()":"ed4c1d97","transferOwnership(address)":"f2fde38b"},"id":47}