{"abi":[{"type":"constructor","inputs":[{"name":"_syncToken","type":"address","internalType":"address"},{"name":"initialOwner","type":"address","internalType":"address"}],"stateMutability":"nonpayable"},{"type":"function","name":"MIN_TOKENS_TO_PROPOSE","inputs":[],"outputs":[{"name":"","type":"uint256","internalType":"uint256"}],"stateMutability":"view"},{"type":"function","name":"VOTING_PERIOD","inputs":[],"outputs":[{"name":"","type":"uint256","internalType":"uint256"}],"stateMutability":"view"},{"type":"function","name":"createProposal","inputs":[{"name":"title","type":"string","internalType":"string"},{"name":"description","type":"string","internalType":"string"}],"outputs":[],"stateMutability":"nonpayable"},{"type":"function","name":"executeProposal","inputs":[{"name":"proposalId","type":"uint256","internalType":"uint256"}],"outputs":[],"stateMutability":"nonpayable"},{"type":"function","name":"getProposal","inputs":[{"name":"proposalId","type":"uint256","internalType":"uint256"}],"outputs":[{"name":"id","type":"uint256","internalType":"uint256"},{"name":"title","type":"string","internalType":"string"},{"name":"description","type":"string","internalType":"string"},{"name":"votesFor","type":"uint256","internalType":"uint256"},{"name":"votesAgainst","type":"uint256","internalType":"uint256"},{"name":"deadline","type":"uint256","internalType":"uint256"},{"name":"executed","type":"bool","internalType":"bool"},{"name":"passed","type":"bool","internalType":"bool"},{"name":"proposer","type":"address","internalType":"address"}],"stateMutability":"view"},{"type":"function","name":"hasVoted","inputs":[{"name":"proposalId","type":"uint256","internalType":"uint256"},{"name":"voter","type":"address","internalType":"address"}],"outputs":[{"name":"","type":"bool","internalType":"bool"}],"stateMutability":"view"},{"type":"function","name":"owner","inputs":[],"outputs":[{"name":"","type":"address","internalType":"address"}],"stateMutability":"view"},{"type":"function","name":"proposalCount","inputs":[],"outputs":[{"name":"","type":"uint256","internalType":"uint256"}],"stateMutability":"view"},{"type":"function","name":"proposals","inputs":[{"name":"","type":"uint256","internalType":"uint256"}],"outputs":[{"name":"id","type":"uint256","internalType":"uint256"},{"name":"title","type":"string","internalType":"string"},{"name":"description","type":"string","internalType":"string"},{"name":"votesFor","type":"uint256","internalType":"uint256"},{"name":"votesAgainst","type":"uint256","internalType":"uint256"},{"name":"deadline","type":"uint256","internalType":"uint256"},{"name":"executed","type":"bool","internalType":"bool"},{"name":"passed","type":"bool","internalType":"bool"},{"name":"proposer","type":"address","internalType":"address"}],"stateMutability":"view"},{"type":"function","name":"renounceOwnership","inputs":[],"outputs":[],"stateMutability":"nonpayable"},{"type":"function","name":"syncToken","inputs":[],"outputs":[{"name":"","type":"address","internalType":"contract SyncToken"}],"stateMutability":"view"},{"type":"function","name":"transferOwnership","inputs":[{"name":"newOwner","type":"address","internalType":"address"}],"outputs":[],"stateMutability":"nonpayable"},{"type":"function","name":"vote","inputs":[{"name":"proposalId","type":"uint256","internalType":"uint256"},{"name":"support","type":"bool","internalType":"bool"}],"outputs":[],"stateMutability":"nonpayable"},{"type":"event","name":"OwnershipTransferred","inputs":[{"name":"previousOwner","type":"address","indexed":true,"internalType":"address"},{"name":"newOwner","type":"address","indexed":true,"internalType":"address"}],"anonymous":false},{"type":"event","name":"ProposalCreated","inputs":[{"name":"proposalId","type":"uint256","indexed":true,"internalType":"uint256"},{"name":"title","type":"string","indexed":false,"internalType":"string"},{"name":"proposer","type":"address","indexed":false,"internalType":"address"}],"anonymous":false},{"type":"event","name":"ProposalExecuted","inputs":[{"name":"proposalId","type":"uint256","indexed":true,"internalType":"uint256"},{"name":"passed","type":"bool","indexed":false,"internalType":"bool"}],"anonymous":false},{"type":"event","name":"VoteCast","inputs":[{"name":"proposalId","type":"uint256","indexed":true,"internalType":"uint256"},{"name":"voter","type":"address","indexed":false,"internalType":"address"},{"name":"support","type":"bool","indexed":false,"internalType":"bool"},{"name":"weight","type":"uint256","indexed":false,"internalType":"uint256"}],"anonymous":false},{"type":"error","name":"OwnableInvalidOwner","inputs":[{"name":"owner","type":"address","internalType":"address"}]},{"type":"error","name":"OwnableUnauthorizedAccount","inputs":[{"name":"account","type":"address","internalType":"address"}]},{"type":"error","name":"ReentrancyGuardReentrantCall","inputs":[]}],"bytecode":{"object":"0x608060405234801561000f575f5ffd5b50604051611ca8380380611ca88339818101604052810190610031919061021f565b805f73ffffffffffffffffffffffffffffffffffffffff168173ffffffffffffffffffffffffffffffffffffffff16036100a2575f6040517f1e4fbdf7000000000000000000000000000000000000000000000000000000008152600401610099919061026c565b60405180910390fd5b6100b18161010060201b60201c565b50600180819055508160025f6101000a81548173ffffffffffffffffffffffffffffffffffffffff021916908373ffffffffffffffffffffffffffffffffffffffff1602179055505050610285565b5f5f5f9054906101000a900473ffffffffffffffffffffffffffffffffffffffff169050815f5f6101000a81548173ffffffffffffffffffffffffffffffffffffffff021916908373ffffffffffffffffffffffffffffffffffffffff1602179055508173ffffffffffffffffffffffffffffffffffffffff168173ffffffffffffffffffffffffffffffffffffffff167f8be0079c531659141344cd1fd0a4f28419497f9722a3daafe3b4186f6b6457e060405160405180910390a35050565b5f5ffd5b5f73ffffffffffffffffffffffffffffffffffffffff82169050919050565b5f6101ee826101c5565b9050919050565b6101fe816101e4565b8114610208575f5ffd5b50565b5f81519050610219816101f5565b92915050565b5f5f60408385031215610235576102346101c1565b5b5f6102428582860161020b565b92505060206102538582860161020b565b9150509250929050565b610266816101e4565b82525050565b5f60208201905061027f5f83018461025d565b92915050565b611a16806102925f395ff3fe608060405234801561000f575f5ffd5b50600436106100cd575f3560e01c8063b1610d7e1161008a578063c9d27afe11610064578063c9d27afe1461020d578063da35c66414610229578063ed4c1d9714610247578063f2fde38b14610265576100cd565b8063b1610d7e14610199578063b6de6d1f146101b7578063c7f758a8146101d5576100cd565b8063013cf08b146100d15780630d61b51914610109578063438596321461012557806365e481e214610155578063715018a6146101715780638da5cb5b1461017b575b5f5ffd5b6100eb60048036038101906100e69190610e6c565b610281565b60405161010099989796959493929190610f6f565b60405180910390f35b610123600480360381019061011e9190610e6c565b610410565b005b61013f600480360381019061013a9190611032565b61054b565b60405161014c9190611070565b60405180910390f35b61016f600480360381019061016a91906111b5565b6105b0565b005b61017961078a565b005b61018361079d565b604051610190919061122b565b60405180910390f35b6101a16107c4565b6040516101ae9190611244565b60405180910390f35b6101bf6107cb565b6040516101cc9190611244565b60405180910390f35b6101ef60048036038101906101ea9190610e6c565b6107d8565b60405161020499989796959493929190610f6f565b60405180910390f35b61022760048036038101906102229190611287565b61098d565b005b610231610c2a565b60405161023e9190611244565b60405180910390f35b61024f610c30565b60405161025c9190611320565b60405180910390f35b61027f600480360381019061027a9190611339565b610c55565b005b6003602052805f5260405f205f91509050805f0154908060010180546102a690611391565b80601f01602080910402602001604051908101604052809291908181526020018280546102d290611391565b801561031d5780601f106102f45761010080835404028352916020019161031d565b820191905f5260205f20905b81548152906001019060200180831161030057829003601f168201915b50505050509080600201805461033290611391565b80601f016020809104026020016040519081016040528092919081815260200182805461035e90611391565b80156103a95780601f10610380576101008083540402835291602001916103a9565b820191905f5260205f20905b81548152906001019060200180831161038c57829003601f168201915b505050505090806003015490806004015490806005015490806006015f9054906101000a900460ff16908060060160019054906101000a900460ff16908060060160029054906101000a900473ffffffffffffffffffffffffffffffffffffffff16905089565b5f60035f8381526020019081526020015f209050806005015442101561046b576040517f08c379a00000000000000000000000000000000000000000000000000000000081526004016104629061140b565b60405180910390fd5b806006015f9054906101000a900460ff16156104bc576040517f08c379a00000000000000000000000000000000000000000000000000000000081526004016104b390611473565b60405180910390fd5b6001816006015f6101000a81548160ff02191690831515021790555080600401548160030154118160060160016101000a81548160ff021916908315150217905550817f948f4a9cd986f1118c3fbd459f7a22b23c0693e1ca3ef06a6a8be5aa7d39cc038260060160019054906101000a900460ff1660405161053f9190611070565b60405180910390a25050565b5f60035f8481526020019081526020015f206007015f8373ffffffffffffffffffffffffffffffffffffffff1673ffffffffffffffffffffffffffffffffffffffff1681526020019081526020015f205f9054906101000a900460ff16905092915050565b68056bc75e2d6310000060025f9054906101000a900473ffffffffffffffffffffffffffffffffffffffff1673ffffffffffffffffffffffffffffffffffffffff166370a08231336040518263ffffffff1660e01b8152600401610614919061122b565b602060405180830381865afa15801561062f573d5f5f3e3d5ffd5b505050506040513d601f19601f8201168201806040525081019061065391906114a5565b1015610694576040517f08c379a000000000000000000000000000000000000000000000000000000000815260040161068b9061151a565b60405180910390fd5b60045f8154809291906106a690611565565b91905055505f60035f60045481526020019081526020015f209050600454815f0181905550828160010190816106dc9190611743565b50818160020190816106ee9190611743565b506203f480426106fe9190611812565b8160050181905550338160060160026101000a81548173ffffffffffffffffffffffffffffffffffffffff021916908373ffffffffffffffffffffffffffffffffffffffff1602179055506004547fc8c078bfee58e5822588f08b4509ed1eb5058e03f666cca84dd2d44bf5c288a8843360405161077d929190611845565b60405180910390a2505050565b610792610cd9565b61079b5f610d60565b565b5f5f5f9054906101000a900473ffffffffffffffffffffffffffffffffffffffff16905090565b6203f48081565b68056bc75e2d6310000081565b5f6060805f5f5f5f5f5f5f60035f8c81526020019081526020015f209050805f01548160010182600201836003015484600401548560050154866006015f9054906101000a900460ff168760060160019054906101000a900460ff168860060160029054906101000a900473ffffffffffffffffffffffffffffffffffffffff1687805461086590611391565b80601f016020809104026020016040519081016040528092919081815260200182805461089190611391565b80156108dc5780601f106108b3576101008083540402835291602001916108dc565b820191905f5260205f20905b8154815290600101906020018083116108bf57829003601f168201915b505050505097508680546108ef90611391565b80601f016020809104026020016040519081016040528092919081815260200182805461091b90611391565b80156109665780601f1061093d57610100808354040283529160200191610966565b820191905f5260205f20905b81548152906001019060200180831161094957829003601f168201915b50505050509650995099509950995099509950995099509950509193959799909294969850565b5f60035f8481526020019081526020015f209050806005015442106109e7576040517f08c379a00000000000000000000000000000000000000000000000000000000081526004016109de906118bd565b60405180910390fd5b806007015f3373ffffffffffffffffffffffffffffffffffffffff1673ffffffffffffffffffffffffffffffffffffffff1681526020019081526020015f205f9054906101000a900460ff1615610a73576040517f08c379a0000000000000000000000000000000000000000000000000000000008152600401610a6a90611925565b60405180910390fd5b5f60025f9054906101000a900473ffffffffffffffffffffffffffffffffffffffff1673ffffffffffffffffffffffffffffffffffffffff166370a08231336040518263ffffffff1660e01b8152600401610ace919061122b565b602060405180830381865afa158015610ae9573d5f5f3e3d5ffd5b505050506040513d601f19601f82011682018060405250810190610b0d91906114a5565b90505f8111610b51576040517f08c379a0000000000000000000000000000000000000000000000000000000008152600401610b489061198d565b60405180910390fd5b6001826007015f3373ffffffffffffffffffffffffffffffffffffffff1673ffffffffffffffffffffffffffffffffffffffff1681526020019081526020015f205f6101000a81548160ff0219169083151502179055508215610bcd5780826003015f828254610bc19190611812565b92505081905550610be8565b80826004015f828254610be09190611812565b925050819055505b837fcbdf6214089cba887ecbf35a0b6a734589959c9763342c756bb2a80ca2bc9f6e338584604051610c1c939291906119ab565b60405180910390a250505050565b60045481565b60025f9054906101000a900473ffffffffffffffffffffffffffffffffffffffff1681565b610c5d610cd9565b5f73ffffffffffffffffffffffffffffffffffffffff168173ffffffffffffffffffffffffffffffffffffffff1603610ccd575f6040517f1e4fbdf7000000000000000000000000000000000000000000000000000000008152600401610cc4919061122b565b60405180910390fd5b610cd681610d60565b50565b610ce1610e21565b73ffffffffffffffffffffffffffffffffffffffff16610cff61079d565b73ffffffffffffffffffffffffffffffffffffffff1614610d5e57610d22610e21565b6040517f118cdaa7000000000000000000000000000000000000000000000000000000008152600401610d55919061122b565b60405180910390fd5b565b5f5f5f9054906101000a900473ffffffffffffffffffffffffffffffffffffffff169050815f5f6101000a81548173ffffffffffffffffffffffffffffffffffffffff021916908373ffffffffffffffffffffffffffffffffffffffff1602179055508173ffffffffffffffffffffffffffffffffffffffff168173ffffffffffffffffffffffffffffffffffffffff167f8be0079c531659141344cd1fd0a4f28419497f9722a3daafe3b4186f6b6457e060405160405180910390a35050565b5f33905090565b5f604051905090565b5f5ffd5b5f5ffd5b5f819050919050565b610e4b81610e39565b8114610e55575f5ffd5b50565b5f81359050610e6681610e42565b92915050565b5f60208284031215610e8157610e80610e31565b5b5f610e8e84828501610e58565b91505092915050565b610ea081610e39565b82525050565b5f81519050919050565b5f82825260208201905092915050565b8281835e5f83830152505050565b5f601f19601f8301169050919050565b5f610ee882610ea6565b610ef28185610eb0565b9350610f02818560208601610ec0565b610f0b81610ece565b840191505092915050565b5f8115159050919050565b610f2a81610f16565b82525050565b5f73ffffffffffffffffffffffffffffffffffffffff82169050919050565b5f610f5982610f30565b9050919050565b610f6981610f4f565b82525050565b5f61012082019050610f835f83018c610e97565b8181036020830152610f95818b610ede565b90508181036040830152610fa9818a610ede565b9050610fb86060830189610e97565b610fc56080830188610e97565b610fd260a0830187610e97565b610fdf60c0830186610f21565b610fec60e0830185610f21565b610ffa610100830184610f60565b9a9950505050505050505050565b61101181610f4f565b811461101b575f5ffd5b50565b5f8135905061102c81611008565b92915050565b5f5f6040838503121561104857611047610e31565b5b5f61105585828601610e58565b92505060206110668582860161101e565b9150509250929050565b5f6020820190506110835f830184610f21565b92915050565b5f5ffd5b5f5ffd5b7f4e487b71000000000000000000000000000000000000000000000000000000005f52604160045260245ffd5b6110c782610ece565b810181811067ffffffffffffffff821117156110e6576110e5611091565b5b80604052505050565b5f6110f8610e28565b905061110482826110be565b919050565b5f67ffffffffffffffff82111561112357611122611091565b5b61112c82610ece565b9050602081019050919050565b828183375f83830152505050565b5f61115961115484611109565b6110ef565b9050828152602081018484840111156111755761117461108d565b5b611180848285611139565b509392505050565b5f82601f83011261119c5761119b611089565b5b81356111ac848260208601611147565b91505092915050565b5f5f604083850312156111cb576111ca610e31565b5b5f83013567ffffffffffffffff8111156111e8576111e7610e35565b5b6111f485828601611188565b925050602083013567ffffffffffffffff81111561121557611214610e35565b5b61122185828601611188565b9150509250929050565b5f60208201905061123e5f830184610f60565b92915050565b5f6020820190506112575f830184610e97565b92915050565b61126681610f16565b8114611270575f5ffd5b50565b5f813590506112818161125d565b92915050565b5f5f6040838503121561129d5761129c610e31565b5b5f6112aa85828601610e58565b92505060206112bb85828601611273565b9150509250929050565b5f819050919050565b5f6112e86112e36112de84610f30565b6112c5565b610f30565b9050919050565b5f6112f9826112ce565b9050919050565b5f61130a826112ef565b9050919050565b61131a81611300565b82525050565b5f6020820190506113335f830184611311565b92915050565b5f6020828403121561134e5761134d610e31565b5b5f61135b8482850161101e565b91505092915050565b7f4e487b71000000000000000000000000000000000000000000000000000000005f52602260045260245ffd5b5f60028204905060018216806113a857607f821691505b6020821081036113bb576113ba611364565b5b50919050565b7f566f74696e6720706572696f64206e6f7420656e6465640000000000000000005f82015250565b5f6113f5601783610eb0565b9150611400826113c1565b602082019050919050565b5f6020820190508181035f830152611422816113e9565b9050919050565b7f50726f706f73616c20616c7265616479206578656375746564000000000000005f82015250565b5f61145d601983610eb0565b915061146882611429565b602082019050919050565b5f6020820190508181035f83015261148a81611451565b9050919050565b5f8151905061149f81610e42565b92915050565b5f602082840312156114ba576114b9610e31565b5b5f6114c784828501611491565b91505092915050565b7f496e73756666696369656e7420746f6b656e7320746f2070726f706f736500005f82015250565b5f611504601e83610eb0565b915061150f826114d0565b602082019050919050565b5f6020820190508181035f830152611531816114f8565b9050919050565b7f4e487b71000000000000000000000000000000000000000000000000000000005f52601160045260245ffd5b5f61156f82610e39565b91507fffffffffffffffffffffffffffffffffffffffffffffffffffffffffffffffff82036115a1576115a0611538565b5b600182019050919050565b5f819050815f5260205f209050919050565b5f6020601f8301049050919050565b5f82821b905092915050565b5f600883026116087fffffffffffffffffffffffffffffffffffffffffffffffffffffffffffffffff826115cd565b61161286836115cd565b95508019841693508086168417925050509392505050565b5f61164461163f61163a84610e39565b6112c5565b610e39565b9050919050565b5f819050919050565b61165d8361162a565b6116716116698261164b565b8484546115d9565b825550505050565b5f5f905090565b611688611679565b611693818484611654565b505050565b5b818110156116b6576116ab5f82611680565b600181019050611699565b5050565b601f8211156116fb576116cc816115ac565b6116d5846115be565b810160208510156116e4578190505b6116f86116f0856115be565b830182611698565b50505b505050565b5f82821c905092915050565b5f61171b5f1984600802611700565b1980831691505092915050565b5f611733838361170c565b9150826002028217905092915050565b61174c82610ea6565b67ffffffffffffffff81111561176557611764611091565b5b61176f8254611391565b61177a8282856116ba565b5f60209050601f8311600181146117ab575f8415611799578287015190505b6117a38582611728565b86555061180a565b601f1984166117b9866115ac565b5f5b828110156117e0578489015182556001820191506020850194506020810190506117bb565b868310156117fd57848901516117f9601f89168261170c565b8355505b6001600288020188555050505b505050505050565b5f61181c82610e39565b915061182783610e39565b925082820190508082111561183f5761183e611538565b5b92915050565b5f6040820190508181035f83015261185d8185610ede565b905061186c6020830184610f60565b9392505050565b7f566f74696e6720706572696f6420656e646564000000000000000000000000005f82015250565b5f6118a7601383610eb0565b91506118b282611873565b602082019050919050565b5f6020820190508181035f8301526118d48161189b565b9050919050565b7f416c726561647920766f746564000000000000000000000000000000000000005f82015250565b5f61190f600d83610eb0565b915061191a826118db565b602082019050919050565b5f6020820190508181035f83015261193c81611903565b9050919050565b7f4e6f20766f74696e6720706f77657200000000000000000000000000000000005f82015250565b5f611977600f83610eb0565b915061198282611943565b602082019050919050565b5f6020820190508181035f8301526119a48161196b565b9050919050565b5f6060820190506119be5f830186610f60565b6119cb6020830185610f21565b6119d86040830184610e97565b94935050505056fea2646970667358221220491dfcaff32cf7a006e53363a8aa70ad4af2f487cf107f15888946771d7f337c64736f6c634300081e0033","linkReferences":{}},"methodIdentifiers":{"MIN_TOKENS_TO_PROPOSE()":"b6de6d1f","VOTING_PERIOD()":"b1610d7e","createProposal(string,string)":"65e481e2","executeProposal(uint256)":"0d61b519","getProposal(uint256)":"c7f758a8","hasVoted(uint256,address)":"43859632","owner()":"8da5cb5b","proposalCount()":"da35c664","proposals(uint256)":"013cf08b","renounceOwnership()":"715018a6","syncToken()":"ed4c1d97","transferOwnership(address)":"f2fde38b","vote(uint256,bool)":"c9d27afe"},"id":48}