{"abi":[{"type":"constructor","inputs":[{"name":"initialOwner","type":"address","internalType":"address"}],"stateMutability":"nonpayable"},{"type":"function","name":"approve","inputs":[{"name":"","type":"address","internalType":"address"},{"name":"","type":"uint256","internalType":"uint256"}],"outputs":[],"stateMutability":"pure"},{"type":"function","name":"balanceOf","inputs":[{"name":"owner","type":"address","internalType":"address"}],"outputs":[{"name":"","type":"uint256","internalType":"uint256"}],"stateMutability":"view"},{"type":"function","name":"challenge","inputs":[{"name":"tokenId","type":"uint256","internalType":"uint256"}],"outputs":[],"stateMutability":"nonpayable"},{"type":"function","name":"createReputation","inputs":[{"name":"user","type":"address","internalType":"address"}],"outputs":[{"name":"","type":"uint256","internalType":"uint256"}],"stateMutability":"nonpayable"},{"type":"function","name":"endorse","inputs":[{"name":"tokenId","type":"uint256","internalType":"uint256"}],"outputs":[],"stateMutability":"nonpayable"},{"type":"function","name":"getApproved","inputs":[{"name":"tokenId","type":"uint256","internalType":"uint256"}],"outputs":[{"name":"","type":"address","internalType":"address"}],"stateMutability":"view"},{"type":"function","name":"getReputation","inputs":[{"name":"tokenId","type":"uint256","internalType":"uint256"}],"outputs":[{"name":"totalScore","type":"uint256","internalType":"uint256"},{"name":"tasksCompleted","type":"uint256","internalType":"uint256"},{"name":"endorsements","type":"uint256","internalType":"uint256"},{"name":"challenges","type":"uint256","internalType":"uint256"},{"name":"skills","type":"string[]","internalType":"string[]"},{"name":"createdAt","type":"uint256","internalType":"uint256"},{"name":"lastUpdated","type":"uint256","internalType":"uint256"}],"stateMutability":"view"},{"type":"function","name":"getSkillScore","inputs":[{"name":"tokenId","type":"uint256","internalType":"uint256"},{"name":"skill","type":"string","internalType":"string"}],"outputs":[{"name":"","type":"uint256","internalType":"uint256"}],"stateMutability":"view"},{"type":"function","name":"isApprovedForAll","inputs":[{"name":"owner","type":"address","internalType":"address"},{"name":"operator","type":"address","internalType":"address"}],"outputs":[{"name":"","type":"bool","internalType":"bool"}],"stateMutability":"view"},{"type":"function","name":"name","inputs":[],"outputs":[{"name":"","type":"string","internalType":"string"}],"stateMutability":"view"},{"type":"function","name":"owner","inputs":[],"outputs":[{"name":"","type":"address","internalType":"address"}],"stateMutability":"view"},{"type":"function","name":"ownerOf","inputs":[{"name":"tokenId","type":"uint256","internalType":"uint256"}],"outputs":[{"name":"","type":"address","internalType":"address"}],"stateMutability":"view"},{"type":"function","name":"renounceOwnership","inputs":[],"outputs":[],"stateMutability":"nonpayable"},{"type":"function","name":"reputations","inputs":[{"name":"","type":"uint256","internalType":"uint256"}],"outputs":[{"name":"totalScore","type":"uint256","internalType":"uint256"},{"name":"tasksCompleted","type":"uint256","internalType":"uint256"},{"name":"endorsements","type":"uint256","internalType":"uint256"},{"name":"challenges","type":"uint256","internalType":"uint256"},{"name":"createdAt","type":"uint256","internalType":"uint256"},{"name":"lastUpdated","type":"uint256","internalType":"uint256"}],"stateMutability":"view"},{"type":"function","name":"safeTransferFrom","inputs":[{"name":"from","type":"address","internalType":"address"},{"name":"to","type":"address","internalType":"address"},{"name":"tokenId","type":"uint256","internalType":"uint256"}],"outputs":[],"stateMutability":"nonpayable"},{"type":"function","name":"safeTransferFrom","inputs":[{"name":"from","type":"address","internalType":"address"},{"name":"to","type":"address","internalType":"address"},{"name":"tokenId","type":"uint256","internalType":"uint256"},{"name":"data","type":"bytes","internalType":"bytes"}],"outputs":[],"stateMutability":"nonpayable"},{"type":"function","name":"setApprovalForAll","inputs":[{"name":"","type":"address","internalType":"address"},{"name":"","type":"bool","internalType":"bool"}],"outputs":[],"stateMutability":"pure"},{"type":"function","name":"supportsInterface","inputs":[{"name":"interfaceId","type":"bytes4","internalType":"bytes4"}],"outputs":[{"name":"","type":"bool","internalType":"bool"}],"stateMutability":"view"},{"type":"function","name":"symbol","inputs":[],"outputs":[{"name":"","type":"string","internalType":"string"}],"stateMutability":"view"},{"type":"function","name":"tokenIdToUser","inputs":[{"name":"","type":"uint256","internalType":"uint256"}],"outputs":[{"name":"","type":"address","internalType":"address"}],"stateMutability":"view"},{"type":"function","name":"tokenURI","inputs":[{"name":"tokenId","type":"uint256","internalType":"uint256"}],"outputs":[{"name":"","type":"string","internalType":"string"}],"stateMutability":"view"},{"type":"function","name":"transferFrom","inputs":[{"name":"from","type":"address","internalType":"address"},{"name":"to","type":"address","internalType":"address"},{"name":"tokenId","type":"uint256","internalType":"uint256"}],"outputs":[],"stateMutability":"nonpayable"},{"type":"function","name":"transferOwnership","inputs":[{"name":"newOwner","type":"address","internalType":"address"}],"outputs":[],"stateMutability":"nonpayable"},{"type":"function","name":"updateSkillScore","inputs":[{"name":"user","type":"address","internalType":"address"},{"name":"skill","type":"string","internalType":"string"},{"name":"score","type":"uint256","internalType":"uint256"}],"outputs":[],"stateMutability":"nonpayable"},{"type":"function","name":"userToTokenId","inputs":[{"name":"","type":"address","internalType":"address"}],"outputs":[{"name":"","type":"uint256","internalType":"uint256"}],"stateMutability":"view"},{"type":"event","name":"Approval","inputs":[{"name":"owner","type":"address","indexed":true,"internalType":"address"},{"name":"approved","type":"address","indexed":true,"internalType":"address"},{"name":"tokenId","type":"uint256","indexed":true,"internalType":"uint256"}],"anonymous":false},{"type":"event","name":"ApprovalForAll","inputs":[{"name":"owner","type":"address","indexed":true,"internalType":"address"},{"name":"operator","type":"address","indexed":true,"internalType":"address"},{"name":"approved","type":"bool","indexed":false,"internalType":"bool"}],"anonymous":false},{"type":"event","name":"Challenged","inputs":[{"name":"tokenId","type":"uint256","indexed":true,"internalType":"uint256"},{"name":"challenger","type":"address","indexed":false,"internalType":"address"}],"anonymous":false},{"type":"event","name":"Endorsed","inputs":[{"name":"tokenId","type":"uint256","indexed":true,"internalType":"uint256"},{"name":"endorser","type":"address","indexed":false,"internalType":"address"}],"anonymous":false},{"type":"event","name":"OwnershipTransferred","inputs":[{"name":"previousOwner","type":"address","indexed":true,"internalType":"address"},{"name":"newOwner","type":"address","indexed":true,"internalType":"address"}],"anonymous":false},{"type":"event","name":"ScoreUpdated","inputs":[{"name":"tokenId","type":"uint256","indexed":true,"internalType":"uint256"},{"name":"skill","type":"string","indexed":false,"internalType":"string"},{"name":"newScore","type":"uint256","indexed":false,"internalType":"uint256"}],"anonymous":false},{"type":"event","name":"Transfer","inputs":[{"name":"from","type":"address","indexed":true,"internalType":"address"},{"name":"to","type":"address","indexed":true,"internalType":"address"},{"name":"tokenId","type":"uint256","indexed":true,"internalType":"uint256"}],"anonymous":false},{"type":"error","name":"ERC721IncorrectOwner","inputs":[{"name":"sender","type":"address","internalType":"address"},{"name":"tokenId","type":"uint256","internalType":"uint256"},{"name":"owner","type":"address","internalType":"address"}]},{"type":"error","name":"ERC721InsufficientApproval","inputs":[{"name":"operator","type":"address","internalType":"address"},{"name":"tokenId","type":"uint256","internalType":"uint256"}]},{"type":"error","name":"ERC721InvalidApprover","inputs":[{"name":"approver","type":"address","internalType":"address"}]},{"type":"error","name":"ERC721InvalidOperator","inputs":[{"name":"operator","type":"address","internalType":"address"}]},{"type":"error","name":"ERC721InvalidOwner","inputs":[{"name":"owner","type":"address","internalType":"address"}]},{"type":"error","name":"ERC721InvalidReceiver","inputs":[{"name":"receiver","type":"address","internalType":"address"}]},{"type":"error","name":"ERC721InvalidSender","inputs":[{"name":"sender","type":"address","internalType":"address"}]},{"type":"error","name":"ERC721NonexistentToken","inputs":[{"name":"tokenId","type":"uint256","internalType":"uint256"}]},{"type":"error","name":"OwnableInvalidOwner","inputs":[{"name":"owner","type":"address","internalType":"address"}]},{"type":"error","name":"OwnableUnauthorizedAccount","inputs":[{"name":"account","type":"address","internalType":"address"}]}],"bytecode":{"object":"0x608060405234801561000f575f5ffd5b506040516137c53803806137c583398181016040528101906100319190610266565b806040518060400160405280601481526020017f536b696c6c53796e632052657075746174696f6e0000000000000000000000008152506040518060400160405280600381526020017f5353520000000000000000000000000000000000000000000000000000000000815250815f90816100ac91906104ce565b5080600190816100bc91906104ce565b5050505f73ffffffffffffffffffffffffffffffffffffffff168173ffffffffffffffffffffffffffffffffffffffff160361012f575f6040517f1e4fbdf700000000000000000000000000000000000000000000000000000000815260040161012691906105ac565b60405180910390fd5b61013e8161014560201b60201c565b50506105c5565b5f60065f9054906101000a900473ffffffffffffffffffffffffffffffffffffffff1690508160065f6101000a81548173ffffffffffffffffffffffffffffffffffffffff021916908373ffffffffffffffffffffffffffffffffffffffff1602179055508173ffffffffffffffffffffffffffffffffffffffff168173ffffffffffffffffffffffffffffffffffffffff167f8be0079c531659141344cd1fd0a4f28419497f9722a3daafe3b4186f6b6457e060405160405180910390a35050565b5f5ffd5b5f73ffffffffffffffffffffffffffffffffffffffff82169050919050565b5f6102358261020c565b9050919050565b6102458161022b565b811461024f575f5ffd5b50565b5f815190506102608161023c565b92915050565b5f6020828403121561027b5761027a610208565b5b5f61028884828501610252565b91505092915050565b5f81519050919050565b7f4e487b71000000000000000000000000000000000000000000000000000000005f52604160045260245ffd5b7f4e487b71000000000000000000000000000000000000000000000000000000005f52602260045260245ffd5b5f600282049050600182168061030c57607f821691505b60208210810361031f5761031e6102c8565b5b50919050565b5f819050815f5260205f209050919050565b5f6020601f8301049050919050565b5f82821b905092915050565b5f600883026103817fffffffffffffffffffffffffffffffffffffffffffffffffffffffffffffffff82610346565b61038b8683610346565b95508019841693508086168417925050509392505050565b5f819050919050565b5f819050919050565b5f6103cf6103ca6103c5846103a3565b6103ac565b6103a3565b9050919050565b5f819050919050565b6103e8836103b5565b6103fc6103f4826103d6565b848454610352565b825550505050565b5f5f905090565b610413610404565b61041e8184846103df565b505050565b5b81811015610441576104365f8261040b565b600181019050610424565b5050565b601f8211156104865761045781610325565b61046084610337565b8101602085101561046f578190505b61048361047b85610337565b830182610423565b50505b505050565b5f82821c905092915050565b5f6104a65f198460080261048b565b1980831691505092915050565b5f6104be8383610497565b9150826002028217905092915050565b6104d782610291565b67ffffffffffffffff8111156104f0576104ef61029b565b5b6104fa82546102f5565b610505828285610445565b5f60209050601f831160018114610536575f8415610524578287015190505b61052e85826104b3565b865550610595565b601f19841661054486610325565b5f5b8281101561056b57848901518255600182019150602085019450602081019050610546565b868310156105885784890151610584601f891682610497565b8355505b6001600288020188555050505b505050505050565b6105a68161022b565b82525050565b5f6020820190506105bf5f83018461059d565b92915050565b6131f3806105d25f395ff3fe608060405234801561000f575f5ffd5b5060043610610171575f3560e01c80637c5a41c8116100dc578063ab82d9a011610095578063c87b56dd1161006f578063c87b56dd14610474578063e985e9c5146104a4578063f2fde38b146104d4578063fd764f22146104f057610171565b8063ab82d9a01461040c578063af24b07b14610428578063b88d4fde1461045857610171565b80637c5a41c81461031e57806389370d8b1461034e5780638da5cb5b1461038457806395d89b41146103a2578063a22cb465146103c0578063a37e0310146103dc57610171565b806342842e0e1161012e57806342842e0e146102475780636352211e146102635780636e0b27251461029357806370a08231146102af578063715018a6146102df57806372fa9b85146102e957610171565b806301ffc9a71461017557806306fdde03146101a5578063081812fc146101c3578063095ea7b3146101f35780631fcfe3eb1461020f57806323b872dd1461022b575b5f5ffd5b61018f600480360381019061018a919061214e565b610520565b60405161019c9190612193565b60405180910390f35b6101ad610601565b6040516101ba919061221c565b60405180910390f35b6101dd60048036038101906101d8919061226f565b610690565b6040516101ea91906122d9565b60405180910390f35b61020d6004803603810190610208919061231c565b6106ab565b005b6102296004803603810190610224919061226f565b6106e6565b005b6102456004803603810190610240919061235a565b61083f565b005b610261600480360381019061025c919061235a565b61093e565b005b61027d6004803603810190610278919061226f565b61095d565b60405161028a91906122d9565b60405180910390f35b6102ad60048036038101906102a891906124d6565b61096e565b005b6102c960048036038101906102c49190612542565b610b0a565b6040516102d6919061257c565b60405180910390f35b6102e7610bc0565b005b61030360048036038101906102fe919061226f565b610bd3565b60405161031596959493929190612595565b60405180910390f35b610338600480360381019061033391906125f4565b610c0b565b604051610345919061257c565b60405180910390f35b6103686004803603810190610363919061226f565b610cbb565b60405161037b9796959493929190612751565b60405180910390f35b61038c610e56565b60405161039991906122d9565b60405180910390f35b6103aa610e7e565b6040516103b7919061221c565b60405180910390f35b6103da60048036038101906103d591906127ef565b610f0e565b005b6103f660048036038101906103f19190612542565b610f49565b604051610403919061257c565b60405180910390f35b6104266004803603810190610421919061226f565b6110be565b005b610442600480360381019061043d9190612542565b611217565b60405161044f919061257c565b60405180910390f35b610472600480360381019061046d91906128cb565b61122c565b005b61048e6004803603810190610489919061226f565b611251565b60405161049b919061221c565b60405180910390f35b6104be60048036038101906104b9919061294b565b6112b7565b6040516104cb9190612193565b60405180910390f35b6104ee60048036038101906104e99190612542565b611345565b005b61050a6004803603810190610505919061226f565b6113c9565b60405161051791906122d9565b60405180910390f35b5f7f80ac58cd000000000000000000000000000000000000000000000000000000007bffffffffffffffffffffffffffffffffffffffffffffffffffffffff1916827bffffffffffffffffffffffffffffffffffffffffffffffffffffffff191614806105ea57507f5b5e139f000000000000000000000000000000000000000000000000000000007bffffffffffffffffffffffffffffffffffffffffffffffffffffffff1916827bffffffffffffffffffffffffffffffffffffffffffffffffffffffff1916145b806105fa57506105f9826113f9565b5b9050919050565b60605f805461060f906129b6565b80601f016020809104026020016040519081016040528092919081815260200182805461063b906129b6565b80156106865780601f1061065d57610100808354040283529160200191610686565b820191905f5260205f20905b81548152906001019060200180831161066957829003601f168201915b5050505050905090565b5f61069a82611462565b506106a4826114e8565b9050919050565b6040517f08c379a00000000000000000000000000000000000000000000000000000000081526004016106dd90612a30565b60405180910390fd5b5f73ffffffffffffffffffffffffffffffffffffffff1661070682611521565b73ffffffffffffffffffffffffffffffffffffffff160361075c576040517f08c379a000000000000000000000000000000000000000000000000000000000815260040161075390612a98565b60405180910390fd5b5f60095f3373ffffffffffffffffffffffffffffffffffffffff1673ffffffffffffffffffffffffffffffffffffffff1681526020019081526020015f2054036107db576040517f08c379a00000000000000000000000000000000000000000000000000000000081526004016107d290612b26565b60405180910390fd5b60085f8281526020019081526020015f206002015f8154809291906107ff90612b71565b9190505550807f0ba03ec97404cb15e8ea2486de4c5f7ee8514f1877def40bcec95179a23c64953360405161083491906122d9565b60405180910390a250565b5f73ffffffffffffffffffffffffffffffffffffffff168273ffffffffffffffffffffffffffffffffffffffff16036108af575f6040517f64a0ae920000000000000000000000000000000000000000000000000000000081526004016108a691906122d9565b60405180910390fd5b5f6108c283836108bd61155a565b611561565b90508373ffffffffffffffffffffffffffffffffffffffff168173ffffffffffffffffffffffffffffffffffffffff1614610938578382826040517f64283d7b00000000000000000000000000000000000000000000000000000000815260040161092f93929190612bb8565b60405180910390fd5b50505050565b61095883838360405180602001604052805f81525061122c565b505050565b5f61096782611462565b9050919050565b61097661176c565b5f60095f8573ffffffffffffffffffffffffffffffffffffffff1673ffffffffffffffffffffffffffffffffffffffff1681526020019081526020015f205490505f81036109f9576040517f08c379a00000000000000000000000000000000000000000000000000000000081526004016109f090612c37565b60405180910390fd5b5f60085f8381526020019081526020015f2090505f8160040185604051610a209190612c8f565b90815260200160405180910390205403610a69578060050184908060018154018082558091505060019003905f5260205f20015f909190919091509081610a679190612e45565b505b828160040185604051610a7c9190612c8f565b90815260200160405180910390208190555082815f015f828254610aa09190612f14565b92505081905550806001015f815480929190610abb90612b71565b9190505550428160070181905550817fa0ee0b689249cf750af4ade6bc72172637c69b6dde940f9e22a2da1a2b6070398585604051610afb929190612f47565b60405180910390a25050505050565b5f5f73ffffffffffffffffffffffffffffffffffffffff168273ffffffffffffffffffffffffffffffffffffffff1603610b7b575f6040517f89c62b64000000000000000000000000000000000000000000000000000000008152600401610b7291906122d9565b60405180910390fd5b60035f8373ffffffffffffffffffffffffffffffffffffffff1673ffffffffffffffffffffffffffffffffffffffff1681526020019081526020015f20549050919050565b610bc861176c565b610bd15f6117f3565b565b6008602052805f5260405f205f91509050805f0154908060010154908060020154908060030154908060060154908060070154905086565b5f5f73ffffffffffffffffffffffffffffffffffffffff16610c2c84611521565b73ffffffffffffffffffffffffffffffffffffffff1603610c82576040517f08c379a0000000000000000000000000000000000000000000000000000000008152600401610c7990612a98565b60405180910390fd5b60085f8481526020019081526020015f2060040182604051610ca49190612c8f565b908152602001604051809103902054905092915050565b5f5f5f5f60605f5f5f73ffffffffffffffffffffffffffffffffffffffff16610ce389611521565b73ffffffffffffffffffffffffffffffffffffffff1603610d39576040517f08c379a0000000000000000000000000000000000000000000000000000000008152600401610d3090612a98565b60405180910390fd5b5f60085f8a81526020019081526020015f209050805f0154816001015482600201548360030154846005018560060154866007015482805480602002602001604051908101604052809291908181526020015f905b82821015610e36578382905f5260205f20018054610dab906129b6565b80601f0160208091040260200160405190810160405280929190818152602001828054610dd7906129b6565b8015610e225780601f10610df957610100808354040283529160200191610e22565b820191905f5260205f20905b815481529060010190602001808311610e0557829003601f168201915b505050505081526020019060010190610d8e565b505050509250975097509750975097509750975050919395979092949650565b5f60065f9054906101000a900473ffffffffffffffffffffffffffffffffffffffff16905090565b606060018054610e8d906129b6565b80601f0160208091040260200160405190810160405280929190818152602001828054610eb9906129b6565b8015610f045780601f10610edb57610100808354040283529160200191610f04565b820191905f5260205f20905b815481529060010190602001808311610ee757829003601f168201915b5050505050905090565b6040517f08c379a0000000000000000000000000000000000000000000000000000000008152600401610f4090612a30565b60405180910390fd5b5f610f5261176c565b5f60095f8473ffffffffffffffffffffffffffffffffffffffff1673ffffffffffffffffffffffffffffffffffffffff1681526020019081526020015f205414610fd1576040517f08c379a0000000000000000000000000000000000000000000000000000000008152600401610fc890612fbf565b60405180910390fd5b610fdb60076118b6565b5f610fe660076118ca565b9050610ff283826118d6565b8060095f8573ffffffffffffffffffffffffffffffffffffffff1673ffffffffffffffffffffffffffffffffffffffff1681526020019081526020015f208190555082600a5f8381526020019081526020015f205f6101000a81548173ffffffffffffffffffffffffffffffffffffffff021916908373ffffffffffffffffffffffffffffffffffffffff1602179055504260085f8381526020019081526020015f20600601819055504260085f8381526020019081526020015f206007018190555080915050919050565b5f73ffffffffffffffffffffffffffffffffffffffff166110de82611521565b73ffffffffffffffffffffffffffffffffffffffff1603611134576040517f08c379a000000000000000000000000000000000000000000000000000000000815260040161112b90612a98565b60405180910390fd5b5f60095f3373ffffffffffffffffffffffffffffffffffffffff1673ffffffffffffffffffffffffffffffffffffffff1681526020019081526020015f2054036111b3576040517f08c379a00000000000000000000000000000000000000000000000000000000081526004016111aa9061304d565b60405180910390fd5b60085f8281526020019081526020015f206003015f8154809291906111d790612b71565b9190505550807fcfe09ca25f55d949baba5e280f5750c9ba4b9048fca5532f916067d433afe4d73360405161120c91906122d9565b60405180910390a250565b6009602052805f5260405f205f915090505481565b61123784848461083f565b61124b61124261155a565b858585856119c9565b50505050565b606061125c82611462565b505f611266611b75565b90505f8151116112845760405180602001604052805f8152506112af565b8061128e84611b8b565b60405160200161129f92919061306b565b6040516020818303038152906040525b915050919050565b5f60055f8473ffffffffffffffffffffffffffffffffffffffff1673ffffffffffffffffffffffffffffffffffffffff1681526020019081526020015f205f8373ffffffffffffffffffffffffffffffffffffffff1673ffffffffffffffffffffffffffffffffffffffff1681526020019081526020015f205f9054906101000a900460ff16905092915050565b61134d61176c565b5f73ffffffffffffffffffffffffffffffffffffffff168173ffffffffffffffffffffffffffffffffffffffff16036113bd575f6040517f1e4fbdf70000000000000000000000000000000000000000000000000000000081526004016113b491906122d9565b60405180910390fd5b6113c6816117f3565b50565b600a602052805f5260405f205f915054906101000a900473ffffffffffffffffffffffffffffffffffffffff1681565b5f7f01ffc9a7000000000000000000000000000000000000000000000000000000007bffffffffffffffffffffffffffffffffffffffffffffffffffffffff1916827bffffffffffffffffffffffffffffffffffffffffffffffffffffffff1916149050919050565b5f5f61146d83611521565b90505f73ffffffffffffffffffffffffffffffffffffffff168173ffffffffffffffffffffffffffffffffffffffff16036114df57826040517f7e2732890000000000000000000000000000000000000000000000000000000081526004016114d6919061257c565b60405180910390fd5b80915050919050565b5f60045f8381526020019081526020015f205f9054906101000a900473ffffffffffffffffffffffffffffffffffffffff169050919050565b5f60025f8381526020019081526020015f205f9054906101000a900473ffffffffffffffffffffffffffffffffffffffff169050919050565b5f33905090565b5f5f61156c84611521565b90505f73ffffffffffffffffffffffffffffffffffffffff168373ffffffffffffffffffffffffffffffffffffffff16146115ad576115ac818486611c55565b5b5f73ffffffffffffffffffffffffffffffffffffffff168173ffffffffffffffffffffffffffffffffffffffff1614611638576115ec5f855f5f611d18565b600160035f8373ffffffffffffffffffffffffffffffffffffffff1673ffffffffffffffffffffffffffffffffffffffff1681526020019081526020015f205f82825403925050819055505b5f73ffffffffffffffffffffffffffffffffffffffff168573ffffffffffffffffffffffffffffffffffffffff16146116b757600160035f8773ffffffffffffffffffffffffffffffffffffffff1673ffffffffffffffffffffffffffffffffffffffff1681526020019081526020015f205f82825401925050819055505b8460025f8681526020019081526020015f205f6101000a81548173ffffffffffffffffffffffffffffffffffffffff021916908373ffffffffffffffffffffffffffffffffffffffff160217905550838573ffffffffffffffffffffffffffffffffffffffff168273ffffffffffffffffffffffffffffffffffffffff167fddf252ad1be2c89b69c2b068fc378daa952ba7f163c4a11628f55a4df523b3ef60405160405180910390a4809150509392505050565b61177461155a565b73ffffffffffffffffffffffffffffffffffffffff16611792610e56565b73ffffffffffffffffffffffffffffffffffffffff16146117f1576117b561155a565b6040517f118cdaa70000000000000000000000000000000000000000000000000000000081526004016117e891906122d9565b60405180910390fd5b565b5f60065f9054906101000a900473ffffffffffffffffffffffffffffffffffffffff1690508160065f6101000a81548173ffffffffffffffffffffffffffffffffffffffff021916908373ffffffffffffffffffffffffffffffffffffffff1602179055508173ffffffffffffffffffffffffffffffffffffffff168173ffffffffffffffffffffffffffffffffffffffff167f8be0079c531659141344cd1fd0a4f28419497f9722a3daafe3b4186f6b6457e060405160405180910390a35050565b6001815f015f828254019250508190555050565b5f815f01549050919050565b5f73ffffffffffffffffffffffffffffffffffffffff168273ffffffffffffffffffffffffffffffffffffffff1603611946575f6040517f64a0ae9200000000000000000000000000000000000000000000000000000000815260040161193d91906122d9565b60405180910390fd5b5f61195283835f611561565b90505f73ffffffffffffffffffffffffffffffffffffffff168173ffffffffffffffffffffffffffffffffffffffff16146119c4575f6040517f73c6ac6e0000000000000000000000000000000000000000000000000000000081526004016119bb91906122d9565b60405180910390fd5b505050565b5f8373ffffffffffffffffffffffffffffffffffffffff163b1115611b6e578273ffffffffffffffffffffffffffffffffffffffff1663150b7a02868685856040518563ffffffff1660e01b8152600401611a2794939291906130e0565b6020604051808303815f875af1925050508015611a6257506040513d601f19601f82011682018060405250810190611a5f919061313e565b60015b611ae3573d805f8114611a90576040519150601f19603f3d011682016040523d82523d5f602084013e611a95565b606091505b505f815103611adb57836040517f64a0ae92000000000000000000000000000000000000000000000000000000008152600401611ad291906122d9565b60405180910390fd5b805181602001fd5b63150b7a0260e01b7bffffffffffffffffffffffffffffffffffffffffffffffffffffffff1916817bffffffffffffffffffffffffffffffffffffffffffffffffffffffff191614611b6c57836040517f64a0ae92000000000000000000000000000000000000000000000000000000008152600401611b6391906122d9565b60405180910390fd5b505b5050505050565b606060405180602001604052805f815250905090565b60605f6001611b9984611ed7565b0190505f8167ffffffffffffffff811115611bb757611bb66123b2565b5b6040519080825280601f01601f191660200182016040528015611be95781602001600182028036833780820191505090505b5090505f82602001820190505b600115611c4a578080600190039150507f3031323334353637383961626364656600000000000000000000000000000000600a86061a8153600a8581611c3f57611c3e613169565b5b0494505f8503611bf6575b819350505050919050565b611c60838383612028565b611d13575f73ffffffffffffffffffffffffffffffffffffffff168373ffffffffffffffffffffffffffffffffffffffff1603611cd457806040517f7e273289000000000000000000000000000000000000000000000000000000008152600401611ccb919061257c565b60405180910390fd5b81816040517f177e802f000000000000000000000000000000000000000000000000000000008152600401611d0a929190613196565b60405180910390fd5b505050565b8080611d5057505f73ffffffffffffffffffffffffffffffffffffffff168273ffffffffffffffffffffffffffffffffffffffff1614155b15611e82575f611d5f84611462565b90505f73ffffffffffffffffffffffffffffffffffffffff168373ffffffffffffffffffffffffffffffffffffffff1614158015611dc957508273ffffffffffffffffffffffffffffffffffffffff168173ffffffffffffffffffffffffffffffffffffffff1614155b8015611ddc5750611dda81846112b7565b155b15611e1e57826040517fa9fbf51f000000000000000000000000000000000000000000000000000000008152600401611e1591906122d9565b60405180910390fd5b8115611e8057838573ffffffffffffffffffffffffffffffffffffffff168273ffffffffffffffffffffffffffffffffffffffff167f8c5be1e5ebec7d5bd14f71427d1e84f3dd0314c0f7b2291e5b200ac8c7c3b92560405160405180910390a45b505b8360045f8581526020019081526020015f205f6101000a81548173ffffffffffffffffffffffffffffffffffffffff021916908373ffffffffffffffffffffffffffffffffffffffff16021790555050505050565b5f5f5f90507a184f03e93ff9f4daa797ed6e38ed64bf6a1f0100000000000000008310611f33577a184f03e93ff9f4daa797ed6e38ed64bf6a1f0100000000000000008381611f2957611f28613169565b5b0492506040810190505b6d04ee2d6d415b85acef81000000008310611f70576d04ee2d6d415b85acef81000000008381611f6657611f65613169565b5b0492506020810190505b662386f26fc100008310611f9f57662386f26fc100008381611f9557611f94613169565b5b0492506010810190505b6305f5e1008310611fc8576305f5e1008381611fbe57611fbd613169565b5b0492506008810190505b6127108310611fed576127108381611fe357611fe2613169565b5b0492506004810190505b60648310612010576064838161200657612005613169565b5b0492506002810190505b600a831061201f576001810190505b80915050919050565b5f5f73ffffffffffffffffffffffffffffffffffffffff168373ffffffffffffffffffffffffffffffffffffffff16141580156120df57508273ffffffffffffffffffffffffffffffffffffffff168473ffffffffffffffffffffffffffffffffffffffff1614806120a0575061209f84846112b7565b5b806120de57508273ffffffffffffffffffffffffffffffffffffffff166120c6836114e8565b73ffffffffffffffffffffffffffffffffffffffff16145b5b90509392505050565b5f604051905090565b5f5ffd5b5f5ffd5b5f7fffffffff0000000000000000000000000000000000000000000000000000000082169050919050565b61212d816120f9565b8114612137575f5ffd5b50565b5f8135905061214881612124565b92915050565b5f60208284031215612163576121626120f1565b5b5f6121708482850161213a565b91505092915050565b5f8115159050919050565b61218d81612179565b82525050565b5f6020820190506121a65f830184612184565b92915050565b5f81519050919050565b5f82825260208201905092915050565b8281835e5f83830152505050565b5f601f19601f8301169050919050565b5f6121ee826121ac565b6121f881856121b6565b93506122088185602086016121c6565b612211816121d4565b840191505092915050565b5f6020820190508181035f83015261223481846121e4565b905092915050565b5f819050919050565b61224e8161223c565b8114612258575f5ffd5b50565b5f8135905061226981612245565b92915050565b5f60208284031215612284576122836120f1565b5b5f6122918482850161225b565b91505092915050565b5f73ffffffffffffffffffffffffffffffffffffffff82169050919050565b5f6122c38261229a565b9050919050565b6122d3816122b9565b82525050565b5f6020820190506122ec5f8301846122ca565b92915050565b6122fb816122b9565b8114612305575f5ffd5b50565b5f81359050612316816122f2565b92915050565b5f5f60408385031215612332576123316120f1565b5b5f61233f85828601612308565b92505060206123508582860161225b565b9150509250929050565b5f5f5f60608486031215612371576123706120f1565b5b5f61237e86828701612308565b935050602061238f86828701612308565b92505060406123a08682870161225b565b9150509250925092565b5f5ffd5b5f5ffd5b7f4e487b71000000000000000000000000000000000000000000000000000000005f52604160045260245ffd5b6123e8826121d4565b810181811067ffffffffffffffff82111715612407576124066123b2565b5b80604052505050565b5f6124196120e8565b905061242582826123df565b919050565b5f67ffffffffffffffff821115612444576124436123b2565b5b61244d826121d4565b9050602081019050919050565b828183375f83830152505050565b5f61247a6124758461242a565b612410565b905082815260208101848484011115612496576124956123ae565b5b6124a184828561245a565b509392505050565b5f82601f8301126124bd576124bc6123aa565b5b81356124cd848260208601612468565b91505092915050565b5f5f5f606084860312156124ed576124ec6120f1565b5b5f6124fa86828701612308565b935050602084013567ffffffffffffffff81111561251b5761251a6120f5565b5b612527868287016124a9565b92505060406125388682870161225b565b9150509250925092565b5f60208284031215612557576125566120f1565b5b5f61256484828501612308565b91505092915050565b6125768161223c565b82525050565b5f60208201905061258f5f83018461256d565b92915050565b5f60c0820190506125a85f83018961256d565b6125b5602083018861256d565b6125c2604083018761256d565b6125cf606083018661256d565b6125dc608083018561256d565b6125e960a083018461256d565b979650505050505050565b5f5f6040838503121561260a576126096120f1565b5b5f6126178582860161225b565b925050602083013567ffffffffffffffff811115612638576126376120f5565b5b612644858286016124a9565b9150509250929050565b5f81519050919050565b5f82825260208201905092915050565b5f819050602082019050919050565b5f82825260208201905092915050565b5f612691826121ac565b61269b8185612677565b93506126ab8185602086016121c6565b6126b4816121d4565b840191505092915050565b5f6126ca8383612687565b905092915050565b5f602082019050919050565b5f6126e88261264e565b6126f28185612658565b93508360208202850161270485612668565b805f5b8581101561273f578484038952815161272085826126bf565b945061272b836126d2565b925060208a01995050600181019050612707565b50829750879550505050505092915050565b5f60e0820190506127645f83018a61256d565b612771602083018961256d565b61277e604083018861256d565b61278b606083018761256d565b818103608083015261279d81866126de565b90506127ac60a083018561256d565b6127b960c083018461256d565b98975050505050505050565b6127ce81612179565b81146127d8575f5ffd5b50565b5f813590506127e9816127c5565b92915050565b5f5f60408385031215612805576128046120f1565b5b5f61281285828601612308565b9250506020612823858286016127db565b9150509250929050565b5f67ffffffffffffffff821115612847576128466123b2565b5b612850826121d4565b9050602081019050919050565b5f61286f61286a8461282d565b612410565b90508281526020810184848401111561288b5761288a6123ae565b5b61289684828561245a565b509392505050565b5f82601f8301126128b2576128b16123aa565b5b81356128c284826020860161285d565b91505092915050565b5f5f5f5f608085870312156128e3576128e26120f1565b5b5f6128f087828801612308565b945050602061290187828801612308565b93505060406129128782880161225b565b925050606085013567ffffffffffffffff811115612933576129326120f5565b5b61293f8782880161289e565b91505092959194509250565b5f5f60408385031215612961576129606120f1565b5b5f61296e85828601612308565b925050602061297f85828601612308565b9150509250929050565b7f4e487b71000000000000000000000000000000000000000000000000000000005f52602260045260245ffd5b5f60028204905060018216806129cd57607f821691505b6020821081036129e0576129df612989565b5b50919050565b7f536f756c626f756e643a20417070726f76616c206e6f7420616c6c6f776564005f82015250565b5f612a1a601f836121b6565b9150612a25826129e6565b602082019050919050565b5f6020820190508181035f830152612a4781612a0e565b9050919050565b7f546f6b656e20646f65736e2774206578697374000000000000000000000000005f82015250565b5f612a826013836121b6565b9150612a8d82612a4e565b602082019050919050565b5f6020820190508181035f830152612aaf81612a76565b9050919050565b7f456e646f72736572206d75737420686176652072657075746174696f6e204e465f8201527f5400000000000000000000000000000000000000000000000000000000000000602082015250565b5f612b106021836121b6565b9150612b1b82612ab6565b604082019050919050565b5f6020820190508181035f830152612b3d81612b04565b9050919050565b7f4e487b71000000000000000000000000000000000000000000000000000000005f52601160045260245ffd5b5f612b7b8261223c565b91507fffffffffffffffffffffffffffffffffffffffffffffffffffffffffffffffff8203612bad57612bac612b44565b5b600182019050919050565b5f606082019050612bcb5f8301866122ca565b612bd8602083018561256d565b612be560408301846122ca565b949350505050565b7f5573657220646f65736e277420686176652072657075746174696f6e204e46545f82015250565b5f612c216020836121b6565b9150612c2c82612bed565b602082019050919050565b5f6020820190508181035f830152612c4e81612c15565b9050919050565b5f81905092915050565b5f612c69826121ac565b612c738185612c55565b9350612c838185602086016121c6565b80840191505092915050565b5f612c9a8284612c5f565b915081905092915050565b5f819050815f5260205f209050919050565b5f6020601f8301049050919050565b5f82821b905092915050565b5f60088302612d017fffffffffffffffffffffffffffffffffffffffffffffffffffffffffffffffff82612cc6565b612d0b8683612cc6565b95508019841693508086168417925050509392505050565b5f819050919050565b5f612d46612d41612d3c8461223c565b612d23565b61223c565b9050919050565b5f819050919050565b612d5f83612d2c565b612d73612d6b82612d4d565b848454612cd2565b825550505050565b5f5f905090565b612d8a612d7b565b612d95818484612d56565b505050565b5b81811015612db857612dad5f82612d82565b600181019050612d9b565b5050565b601f821115612dfd57612dce81612ca5565b612dd784612cb7565b81016020851015612de6578190505b612dfa612df285612cb7565b830182612d9a565b50505b505050565b5f82821c905092915050565b5f612e1d5f1984600802612e02565b1980831691505092915050565b5f612e358383612e0e565b9150826002028217905092915050565b612e4e826121ac565b67ffffffffffffffff811115612e6757612e666123b2565b5b612e7182546129b6565b612e7c828285612dbc565b5f60209050601f831160018114612ead575f8415612e9b578287015190505b612ea58582612e2a565b865550612f0c565b601f198416612ebb86612ca5565b5f5b82811015612ee257848901518255600182019150602085019450602081019050612ebd565b86831015612eff5784890151612efb601f891682612e0e565b8355505b6001600288020188555050505b505050505050565b5f612f1e8261223c565b9150612f298361223c565b9250828201905080821115612f4157612f40612b44565b5b92915050565b5f6040820190508181035f830152612f5f81856121e4565b9050612f6e602083018461256d565b9392505050565b7f5573657220616c7265616479206861732072657075746174696f6e204e4654005f82015250565b5f612fa9601f836121b6565b9150612fb482612f75565b602082019050919050565b5f6020820190508181035f830152612fd681612f9d565b9050919050565b7f4368616c6c656e676572206d75737420686176652072657075746174696f6e205f8201527f4e46540000000000000000000000000000000000000000000000000000000000602082015250565b5f6130376023836121b6565b915061304282612fdd565b604082019050919050565b5f6020820190508181035f8301526130648161302b565b9050919050565b5f6130768285612c5f565b91506130828284612c5f565b91508190509392505050565b5f81519050919050565b5f82825260208201905092915050565b5f6130b28261308e565b6130bc8185613098565b93506130cc8185602086016121c6565b6130d5816121d4565b840191505092915050565b5f6080820190506130f35f8301876122ca565b61310060208301866122ca565b61310d604083018561256d565b818103606083015261311f81846130a8565b905095945050505050565b5f8151905061313881612124565b92915050565b5f60208284031215613153576131526120f1565b5b5f6131608482850161312a565b91505092915050565b7f4e487b71000000000000000000000000000000000000000000000000000000005f52601260045260245ffd5b5f6040820190506131a95f8301856122ca565b6131b6602083018461256d565b939250505056fea26469706673582212206e355c5627ef4e93a1f8cbb8b3c79765db590352bb622921a8ba4caccb163f9764736f6c634300081e0033","linkReferences":{}},"methodIdentifiers":{"approve(address,uint256)":"095ea7b3","balanceOf(address)":"70a08231","challenge(uint256)":"ab82d9a0","createReputation(address)":"a37e0310","endorse(uint256)":"1fcfe3eb","getApproved(uint256)":"081812fc","getReputation(uint256)":"89370d8b","getSkillScore(uint256,string)":"7c5a41c8","isApprovedForAll(address,address)":"e985e9c5","name()":"06fdde03","owner()":"8da5cb5b","ownerOf(uint256)":"6352211e","renounceOwnership()":"715018a6","reputations(uint256)":"72fa9b85","safeTransferFrom(address,address,uint256)":"42842e0e","safeTransferFrom(address,address,uint256,bytes)":"b88d4fde","setApprovalForAll(address,bool)":"a22cb465","supportsInterface(bytes4)":"01ffc9a7","symbol()":"95d89b41","tokenIdToUser(uint256)":"fd764f22","tokenURI(uint256)":"c87b56dd","transferFrom(address,address,uint256)":"23b872dd","transferOwnership(address)":"f2fde38b","updateSkillScore(address,string,uint256)":"6e0b2725","userToTokenId(address)":"af24b07b"},"id":49}