{"abi":[{"type":"constructor","inputs":[],"stateMutability":"nonpayable"},{"type":"function","name":"MAX_SUPPLY","inputs":[],"outputs":[{"name":"","type":"uint256","internalType":"uint256"}],"stateMutability":"view"},{"type":"function","name":"TASK_REWARD","inputs":[],"outputs":[{"name":"","type":"uint256","internalType":"uint256"}],"stateMutability":"view"},{"type":"function","name":"addMinter","inputs":[{"name":"minter","type":"address","internalType":"address"}],"outputs":[],"stateMutability":"nonpayable"},{"type":"function","name":"allowance","inputs":[{"name":"owner","type":"address","internalType":"address"},{"name":"spender","type":"address","internalType":"address"}],"outputs":[{"name":"","type":"uint256","internalType":"uint256"}],"stateMutability":"view"},{"type":"function","name":"approve","inputs":[{"name":"spender","type":"address","internalType":"address"},{"name":"value","type":"uint256","internalType":"uint256"}],"outputs":[{"name":"","type":"bool","internalType":"bool"}],"stateMutability":"nonpayable"},{"type":"function","name":"authorizedMinters","inputs":[{"name":"","type":"address","internalType":"address"}],"outputs":[{"name":"","type":"bool","internalType":"bool"}],"stateMutability":"view"},{"type":"function","name":"balanceOf","inputs":[{"name":"account","type":"address","internalType":"address"}],"outputs":[{"name":"","type":"uint256","internalType":"uint256"}],"stateMutability":"view"},{"type":"function","name":"decimals","inputs":[],"outputs":[{"name":"","type":"uint8","internalType":"uint8"}],"stateMutability":"view"},{"type":"function","name":"mint","inputs":[{"name":"to","type":"address","internalType":"address"},{"name":"amount","type":"uint256","internalType":"uint256"}],"outputs":[],"stateMutability":"nonpayable"},{"type":"function","name":"mintTaskReward","inputs":[{"name":"to","type":"address","internalType":"address"}],"outputs":[],"stateMutability":"nonpayable"},{"type":"function","name":"name","inputs":[],"outputs":[{"name":"","type":"string","internalType":"string"}],"stateMutability":"view"},{"type":"function","name":"owner","inputs":[],"outputs":[{"name":"","type":"address","internalType":"address"}],"stateMutability":"view"},{"type":"function","name":"removeMinter","inputs":[{"name":"minter","type":"address","internalType":"address"}],"outputs":[],"stateMutability":"nonpayable"},{"type":"function","name":"renounceOwnership","inputs":[],"outputs":[],"stateMutability":"nonpayable"},{"type":"function","name":"symbol","inputs":[],"outputs":[{"name":"","type":"string","internalType":"string"}],"stateMutability":"view"},{"type":"function","name":"totalSupply","inputs":[],"outputs":[{"name":"","type":"uint256","internalType":"uint256"}],"stateMutability":"view"},{"type":"function","name":"transfer","inputs":[{"name":"to","type":"address","internalType":"address"},{"name":"value","type":"uint256","internalType":"uint256"}],"outputs":[{"name":"","type":"bool","internalType":"bool"}],"stateMutability":"nonpayable"},{"type":"function","name":"transferFrom","inputs":[{"name":"from","type":"address","internalType":"address"},{"name":"to","type":"address","internalType":"address"},{"name":"value","type":"uint256","internalType":"uint256"}],"outputs":[{"name":"","type":"bool","internalType":"bool"}],"stateMutability":"nonpayable"},{"type":"function","name":"transferOwnership","inputs":[{"name":"newOwner","type":"address","internalType":"address"}],"outputs":[],"stateMutability":"nonpayable"},{"type":"event","name":"Approval","inputs":[{"name":"owner","type":"address","indexed":true,"internalType":"address"},{"name":"spender","type":"address","indexed":true,"internalType":"address"},{"name":"value","type":"uint256","indexed":false,"internalType":"uint256"}],"anonymous":false},{"type":"event","name":"OwnershipTransferred","inputs":[{"name":"previousOwner","type":"address","indexed":true,"internalType":"address"},{"name":"newOwner","type":"address","indexed":true,"internalType":"address"}],"anonymous":false},{"type":"event","name":"Transfer","inputs":[{"name":"from","type":"address","indexed":true,"internalType":"address"},{"name":"to","type":"address","indexed":true,"internalType":"address"},{"name":"value","type":"uint256","indexed":false,"internalType":"uint256"}],"anonymous":false},{"type":"error","name":"ERC20InsufficientAllowance","inputs":[{"name":"spender","type":"address","internalType":"address"},{"name":"allowance","type":"uint256","internalType":"uint256"},{"name":"needed","type":"uint256","internalType":"uint256"}]},{"type":"error","name":"ERC20InsufficientBalance","inputs":[{"name":"sender","type":"address","internalType":"address"},{"name":"balance","type":"uint256","internalType":"uint256"},{"name":"needed","type":"uint256","internalType":"uint256"}]},{"type":"error","name":"ERC20InvalidApprover","inputs":[{"name":"approver","type":"address","internalType":"address"}]},{"type":"error","name":"ERC20InvalidReceiver","inputs":[{"name":"receiver","type":"address","internalType":"address"}]},{"type":"error","name":"ERC20InvalidSender","inputs":[{"name":"sender","type":"address","internalType":"address"}]},{"type":"error","name":"ERC20InvalidSpender","inputs":[{"name":"spender","type":"address","internalType":"address"}]},{"type":"error","name":"OwnableInvalidOwner","inputs":[{"name":"owner","type":"address","internalType":"address"}]},{"type":"error","name":"OwnableUnauthorizedAccount","inputs":[{"name":"account","type":"address","internalType":"address"}]}],"bytecode":{"object":"0x608060405234801561000f575f5ffd5b50336040518060400160405280600f81526020017f536b696c6c53796e6320546f6b656e00000000000000000000000000000000008152506040518060400160405280600481526020017f53594e4300000000000000000000000000000000000000000000000000000000815250816003908161008c91906106dc565b50806004908161009c91906106dc565b5050505f73ffffffffffffffffffffffffffffffffffffffff168173ffffffffffffffffffffffffffffffffffffffff160361010f575f6040517f1e4fbdf700000000000000000000000000000000000000000000000000000000815260040161010691906107ea565b60405180910390fd5b61011e8161013e60201b60201c565b506101393369152d02c7e14af680000061020160201b60201c565b6108c0565b5f60055f9054906101000a900473ffffffffffffffffffffffffffffffffffffffff1690508160055f6101000a81548173ffffffffffffffffffffffffffffffffffffffff021916908373ffffffffffffffffffffffffffffffffffffffff1602179055508173ffffffffffffffffffffffffffffffffffffffff168173ffffffffffffffffffffffffffffffffffffffff167f8be0079c531659141344cd1fd0a4f28419497f9722a3daafe3b4186f6b6457e060405160405180910390a35050565b5f73ffffffffffffffffffffffffffffffffffffffff168273ffffffffffffffffffffffffffffffffffffffff1603610271575f6040517fec442f0500000000000000000000000000000000000000000000000000000000815260040161026891906107ea565b60405180910390fd5b6102825f838361028660201b60201c565b5050565b5f73ffffffffffffffffffffffffffffffffffffffff168373ffffffffffffffffffffffffffffffffffffffff16036102d6578060025f8282546102ca9190610830565b925050819055506103a4565b5f5f5f8573ffffffffffffffffffffffffffffffffffffffff1673ffffffffffffffffffffffffffffffffffffffff1681526020019081526020015f205490508181101561035f578381836040517fe450d38c00000000000000000000000000000000000000000000000000000000815260040161035693929190610872565b60405180910390fd5b8181035f5f8673ffffffffffffffffffffffffffffffffffffffff1673ffffffffffffffffffffffffffffffffffffffff1681526020019081526020015f2081905550505b5f73ffffffffffffffffffffffffffffffffffffffff168273ffffffffffffffffffffffffffffffffffffffff16036103eb578060025f8282540392505081905550610435565b805f5f8473ffffffffffffffffffffffffffffffffffffffff1673ffffffffffffffffffffffffffffffffffffffff1681526020019081526020015f205f82825401925050819055505b8173ffffffffffffffffffffffffffffffffffffffff168373ffffffffffffffffffffffffffffffffffffffff167fddf252ad1be2c89b69c2b068fc378daa952ba7f163c4a11628f55a4df523b3ef8360405161049291906108a7565b60405180910390a3505050565b5f81519050919050565b7f4e487b71000000000000000000000000000000000000000000000000000000005f52604160045260245ffd5b7f4e487b71000000000000000000000000000000000000000000000000000000005f52602260045260245ffd5b5f600282049050600182168061051a57607f821691505b60208210810361052d5761052c6104d6565b5b50919050565b5f819050815f5260205f209050919050565b5f6020601f8301049050919050565b5f82821b905092915050565b5f6008830261058f7fffffffffffffffffffffffffffffffffffffffffffffffffffffffffffffffff82610554565b6105998683610554565b95508019841693508086168417925050509392505050565b5f819050919050565b5f819050919050565b5f6105dd6105d86105d3846105b1565b6105ba565b6105b1565b9050919050565b5f819050919050565b6105f6836105c3565b61060a610602826105e4565b848454610560565b825550505050565b5f5f905090565b610621610612565b61062c8184846105ed565b505050565b5b8181101561064f576106445f82610619565b600181019050610632565b5050565b601f8211156106945761066581610533565b61066e84610545565b8101602085101561067d578190505b61069161068985610545565b830182610631565b50505b505050565b5f82821c905092915050565b5f6106b45f1984600802610699565b1980831691505092915050565b5f6106cc83836106a5565b9150826002028217905092915050565b6106e58261049f565b67ffffffffffffffff8111156106fe576106fd6104a9565b5b6107088254610503565b610713828285610653565b5f60209050601f831160018114610744575f8415610732578287015190505b61073c85826106c1565b8655506107a3565b601f19841661075286610533565b5f5b8281101561077957848901518255600182019150602085019450602081019050610754565b868310156107965784890151610792601f8916826106a5565b8355505b6001600288020188555050505b505050505050565b5f73ffffffffffffffffffffffffffffffffffffffff82169050919050565b5f6107d4826107ab565b9050919050565b6107e4816107ca565b82525050565b5f6020820190506107fd5f8301846107db565b92915050565b7f4e487b71000000000000000000000000000000000000000000000000000000005f52601160045260245ffd5b5f61083a826105b1565b9150610845836105b1565b925082820190508082111561085d5761085c610803565b5b92915050565b61086c816105b1565b82525050565b5f6060820190506108855f8301866107db565b6108926020830185610863565b61089f6040830184610863565b949350505050565b5f6020820190506108ba5f830184610863565b92915050565b6115d9806108cd5f395ff3fe608060405234801561000f575f5ffd5b506004361061011f575f3560e01c806370a08231116100ab578063a9059cbb1161006f578063a9059cbb146102e1578063aa2fe91b14610311578063d0a1bff314610341578063dd62ed3e1461035f578063f2fde38b1461038f5761011f565b806370a082311461024f578063715018a61461027f5780638da5cb5b1461028957806395d89b41146102a7578063983b2d56146102c55761011f565b80633092afd5116100f25780633092afd5146101bf578063313ce567146101db57806332cb6b0c146101f957806340c10f19146102175780634282d31a146102335761011f565b806306fdde0314610123578063095ea7b31461014157806318160ddd1461017157806323b872dd1461018f575b5f5ffd5b61012b6103ab565b6040516101389190611182565b60405180910390f35b61015b60048036038101906101569190611233565b61043b565b604051610168919061128b565b60405180910390f35b61017961045d565b60405161018691906112b3565b60405180910390f35b6101a960048036038101906101a491906112cc565b610466565b6040516101b6919061128b565b60405180910390f35b6101d960048036038101906101d4919061131c565b610494565b005b6101e36104f3565b6040516101f09190611362565b60405180910390f35b6102016104fb565b60405161020e91906112b3565b60405180910390f35b610231600480360381019061022c9190611233565b610509565b005b61024d6004803603810190610248919061131c565b6105ff565b005b6102696004803603810190610264919061131c565b610704565b60405161027691906112b3565b60405180910390f35b610287610749565b005b61029161075c565b60405161029e919061138a565b60405180910390f35b6102af610784565b6040516102bc9190611182565b60405180910390f35b6102df60048036038101906102da919061131c565b610814565b005b6102fb60048036038101906102f69190611233565b610874565b604051610308919061128b565b60405180910390f35b61032b6004803603810190610326919061131c565b610896565b604051610338919061128b565b60405180910390f35b6103496108b3565b60405161035691906112b3565b60405180910390f35b610379600480360381019061037491906113a3565b6108bf565b60405161038691906112b3565b60405180910390f35b6103a960048036038101906103a4919061131c565b610941565b005b6060600380546103ba9061140e565b80601f01602080910402602001604051908101604052809291908181526020018280546103e69061140e565b80156104315780601f1061040857610100808354040283529160200191610431565b820191905f5260205f20905b81548152906001019060200180831161041457829003601f168201915b5050505050905090565b5f5f6104456109c5565b90506104528185856109cc565b600191505092915050565b5f600254905090565b5f5f6104706109c5565b905061047d8582856109de565b610488858585610a71565b60019150509392505050565b61049c610b61565b5f60065f8373ffffffffffffffffffffffffffffffffffffffff1673ffffffffffffffffffffffffffffffffffffffff1681526020019081526020015f205f6101000a81548160ff02191690831515021790555050565b5f6012905090565b69d3c21bcecceda100000081565b60065f3373ffffffffffffffffffffffffffffffffffffffff1673ffffffffffffffffffffffffffffffffffffffff1681526020019081526020015f205f9054906101000a900460ff16610592576040517f08c379a000000000000000000000000000000000000000000000000000000000815260040161058990611488565b60405180910390fd5b69d3c21bcecceda1000000816105a661045d565b6105b091906114d3565b11156105f1576040517f08c379a00000000000000000000000000000000000000000000000000000000081526004016105e890611550565b60405180910390fd5b6105fb8282610be8565b5050565b60065f3373ffffffffffffffffffffffffffffffffffffffff1673ffffffffffffffffffffffffffffffffffffffff1681526020019081526020015f205f9054906101000a900460ff16610688576040517f08c379a000000000000000000000000000000000000000000000000000000000815260040161067f90611488565b60405180910390fd5b69d3c21bcecceda1000000678ac7230489e800006106a461045d565b6106ae91906114d3565b11156106ef576040517f08c379a00000000000000000000000000000000000000000000000000000000081526004016106e690611550565b60405180910390fd5b61070181678ac7230489e80000610be8565b50565b5f5f5f8373ffffffffffffffffffffffffffffffffffffffff1673ffffffffffffffffffffffffffffffffffffffff1681526020019081526020015f20549050919050565b610751610b61565b61075a5f610c67565b565b5f60055f9054906101000a900473ffffffffffffffffffffffffffffffffffffffff16905090565b6060600480546107939061140e565b80601f01602080910402602001604051908101604052809291908181526020018280546107bf9061140e565b801561080a5780601f106107e15761010080835404028352916020019161080a565b820191905f5260205f20905b8154815290600101906020018083116107ed57829003601f168201915b5050505050905090565b61081c610b61565b600160065f8373ffffffffffffffffffffffffffffffffffffffff1673ffffffffffffffffffffffffffffffffffffffff1681526020019081526020015f205f6101000a81548160ff02191690831515021790555050565b5f5f61087e6109c5565b905061088b818585610a71565b600191505092915050565b6006602052805f5260405f205f915054906101000a900460ff1681565b678ac7230489e8000081565b5f60015f8473ffffffffffffffffffffffffffffffffffffffff1673ffffffffffffffffffffffffffffffffffffffff1681526020019081526020015f205f8373ffffffffffffffffffffffffffffffffffffffff1673ffffffffffffffffffffffffffffffffffffffff1681526020019081526020015f2054905092915050565b610949610b61565b5f73ffffffffffffffffffffffffffffffffffffffff168173ffffffffffffffffffffffffffffffffffffffff16036109b9575f6040517f1e4fbdf70000000000000000000000000000000000000000000000000000000081526004016109b0919061138a565b60405180910390fd5b6109c281610c67565b50565b5f33905090565b6109d98383836001610d2a565b505050565b5f6109e984846108bf565b90507fffffffffffffffffffffffffffffffffffffffffffffffffffffffffffffffff811015610a6b5781811015610a5c578281836040517ffb8f41b2000000000000000000000000000000000000000000000000000000008152600401610a539392919061156e565b60405180910390fd5b610a6a84848484035f610d2a565b5b50505050565b5f73ffffffffffffffffffffffffffffffffffffffff168373ffffffffffffffffffffffffffffffffffffffff1603610ae1575f6040517f96c6fd1e000000000000000000000000000000000000000000000000000000008152600401610ad8919061138a565b60405180910390fd5b5f73ffffffffffffffffffffffffffffffffffffffff168273ffffffffffffffffffffffffffffffffffffffff1603610b51575f6040517fec442f05000000000000000000000000000000000000000000000000000000008152600401610b48919061138a565b60405180910390fd5b610b5c838383610ef9565b505050565b610b696109c5565b73ffffffffffffffffffffffffffffffffffffffff16610b8761075c565b73ffffffffffffffffffffffffffffffffffffffff1614610be657610baa6109c5565b6040517f118cdaa7000000000000000000000000000000000000000000000000000000008152600401610bdd919061138a565b60405180910390fd5b565b5f73ffffffffffffffffffffffffffffffffffffffff168273ffffffffffffffffffffffffffffffffffffffff1603610c58575f6040517fec442f05000000000000000000000000000000000000000000000000000000008152600401610c4f919061138a565b60405180910390fd5b610c635f8383610ef9565b5050565b5f60055f9054906101000a900473ffffffffffffffffffffffffffffffffffffffff1690508160055f6101000a81548173ffffffffffffffffffffffffffffffffffffffff021916908373ffffffffffffffffffffffffffffffffffffffff1602179055508173ffffffffffffffffffffffffffffffffffffffff168173ffffffffffffffffffffffffffffffffffffffff167f8be0079c531659141344cd1fd0a4f28419497f9722a3daafe3b4186f6b6457e060405160405180910390a35050565b5f73ffffffffffffffffffffffffffffffffffffffff168473ffffffffffffffffffffffffffffffffffffffff1603610d9a575f6040517fe602df05000000000000000000000000000000000000000000000000000000008152600401610d91919061138a565b60405180910390fd5b5f73ffffffffffffffffffffffffffffffffffffffff168373ffffffffffffffffffffffffffffffffffffffff1603610e0a575f6040517f94280d62000000000000000000000000000000000000000000000000000000008152600401610e01919061138a565b60405180910390fd5b8160015f8673ffffffffffffffffffffffffffffffffffffffff1673ffffffffffffffffffffffffffffffffffffffff1681526020019081526020015f205f8573ffffffffffffffffffffffffffffffffffffffff1673ffffffffffffffffffffffffffffffffffffffff1681526020019081526020015f20819055508015610ef3578273ffffffffffffffffffffffffffffffffffffffff168473ffffffffffffffffffffffffffffffffffffffff167f8c5be1e5ebec7d5bd14f71427d1e84f3dd0314c0f7b2291e5b200ac8c7c3b92584604051610eea91906112b3565b60405180910390a35b50505050565b5f73ffffffffffffffffffffffffffffffffffffffff168373ffffffffffffffffffffffffffffffffffffffff1603610f49578060025f828254610f3d91906114d3565b92505081905550611017565b5f5f5f8573ffffffffffffffffffffffffffffffffffffffff1673ffffffffffffffffffffffffffffffffffffffff1681526020019081526020015f2054905081811015610fd2578381836040517fe450d38c000000000000000000000000000000000000000000000000000000008152600401610fc99392919061156e565b60405180910390fd5b8181035f5f8673ffffffffffffffffffffffffffffffffffffffff1673ffffffffffffffffffffffffffffffffffffffff1681526020019081526020015f2081905550505b5f73ffffffffffffffffffffffffffffffffffffffff168273ffffffffffffffffffffffffffffffffffffffff160361105e578060025f82825403925050819055506110a8565b805f5f8473ffffffffffffffffffffffffffffffffffffffff1673ffffffffffffffffffffffffffffffffffffffff1681526020019081526020015f205f82825401925050819055505b8173ffffffffffffffffffffffffffffffffffffffff168373ffffffffffffffffffffffffffffffffffffffff167fddf252ad1be2c89b69c2b068fc378daa952ba7f163c4a11628f55a4df523b3ef8360405161110591906112b3565b60405180910390a3505050565b5f81519050919050565b5f82825260208201905092915050565b8281835e5f83830152505050565b5f601f19601f8301169050919050565b5f61115482611112565b61115e818561111c565b935061116e81856020860161112c565b6111778161113a565b840191505092915050565b5f6020820190508181035f83015261119a818461114a565b905092915050565b5f5ffd5b5f73ffffffffffffffffffffffffffffffffffffffff82169050919050565b5f6111cf826111a6565b9050919050565b6111df816111c5565b81146111e9575f5ffd5b50565b5f813590506111fa816111d6565b92915050565b5f819050919050565b61121281611200565b811461121c575f5ffd5b50565b5f8135905061122d81611209565b92915050565b5f5f60408385031215611249576112486111a2565b5b5f611256858286016111ec565b92505060206112678582860161121f565b9150509250929050565b5f8115159050919050565b61128581611271565b82525050565b5f60208201905061129e5f83018461127c565b92915050565b6112ad81611200565b82525050565b5f6020820190506112c65f8301846112a4565b92915050565b5f5f5f606084860312156112e3576112e26111a2565b5b5f6112f0868287016111ec565b9350506020611301868287016111ec565b92505060406113128682870161121f565b9150509250925092565b5f60208284031215611331576113306111a2565b5b5f61133e848285016111ec565b91505092915050565b5f60ff82169050919050565b61135c81611347565b82525050565b5f6020820190506113755f830184611353565b92915050565b611384816111c5565b82525050565b5f60208201905061139d5f83018461137b565b92915050565b5f5f604083850312156113b9576113b86111a2565b5b5f6113c6858286016111ec565b92505060206113d7858286016111ec565b9150509250929050565b7f4e487b71000000000000000000000000000000000000000000000000000000005f52602260045260245ffd5b5f600282049050600182168061142557607f821691505b602082108103611438576114376113e1565b5b50919050565b7f4e6f7420617574686f72697a656420746f206d696e74000000000000000000005f82015250565b5f61147260168361111c565b915061147d8261143e565b602082019050919050565b5f6020820190508181035f83015261149f81611466565b9050919050565b7f4e487b71000000000000000000000000000000000000000000000000000000005f52601160045260245ffd5b5f6114dd82611200565b91506114e883611200565b9250828201905080821115611500576114ff6114a6565b5b92915050565b7f4d617820737570706c79206578636565646564000000000000000000000000005f82015250565b5f61153a60138361111c565b915061154582611506565b602082019050919050565b5f6020820190508181035f8301526115678161152e565b9050919050565b5f6060820190506115815f83018661137b565b61158e60208301856112a4565b61159b60408301846112a4565b94935050505056fea2646970667358221220603b80c242b8024897d5b8130fdd748e3aa9e0bf417e341cac3d7925cfff531b64736f6c634300081e0033","linkReferences":{}},"methodIdentifiers":{"MAX_SUPPLY()":"32cb6b0c","TASK_REWARD()":"d0a1bff3","addMinter(address)":"983b2d56","allowance(address,address)":"dd62ed3e","approve(address,uint256)":"095ea7b3","authorizedMinters(address)":"aa2fe91b","balanceOf(address)":"70a08231","decimals()":"313ce567","mint(address,uint256)":"40c10f19","mintTaskReward(address)":"4282d31a","name()":"06fdde03","owner()":"8da5cb5b","removeMinter(address)":"3092afd5","renounceOwnership()":"715018a6","symbol()":"95d89b41","totalSupply()":"18160ddd","transfer(address,uint256)":"a9059cbb","transferFrom(address,address,uint256)":"23b872dd","transferOwnership(address)":"f2fde38b"},"id":54}