{"abi":[{"type":"constructor","inputs":[{"name":"_syncToken","type":"address","internalType":"address"},{"name":"_soulboundNFT","type":"address","internalType":"address"},{"name":"initialOwner","type":"address","internalType":"address"}],"stateMutability":"nonpayable"},{"type":"function","name":"createTask","inputs":[{"name":"title","type":"string","internalType":"string"},{"name":"description","type":"string","internalType":"string"},{"name":"skillCategory","type":"string","internalType":"string"},{"name":"difficulty","type":"uint256","internalType":"uint256"},{"name":"ipfsHash","type":"string","internalType":"string"},{"name":"reward","type":"uint256","internalType":"uint256"}],"outputs":[],"stateMutability":"nonpayable"},{"type":"function","name":"evaluateTask","inputs":[{"name":"taskId","type":"uint256","internalType":"uint256"},{"name":"submitter","type":"address","internalType":"address"},{"name":"score","type":"uint256","internalType":"uint256"}],"outputs":[],"stateMutability":"nonpayable"},{"type":"function","name":"getSubmission","inputs":[{"name":"taskId","type":"uint256","internalType":"uint256"},{"name":"submitter","type":"address","internalType":"address"}],"outputs":[{"name":"","type":"tuple","internalType":"struct TaskManager.TaskSubmission","components":[{"name":"taskId","type":"uint256","internalType":"uint256"},{"name":"submitter","type":"address","internalType":"address"},{"name":"ipfsHash","type":"string","internalType":"string"},{"name":"score","type":"uint256","internalType":"uint256"},{"name":"isEvaluated","type":"bool","internalType":"bool"},{"name":"submittedAt","type":"uint256","internalType":"uint256"},{"name":"evaluatedAt","type":"uint256","internalType":"uint256"}]}],"stateMutability":"view"},{"type":"function","name":"getTask","inputs":[{"name":"taskId","type":"uint256","internalType":"uint256"}],"outputs":[{"name":"","type":"tuple","internalType":"struct TaskManager.Task","components":[{"name":"id","type":"uint256","internalType":"uint256"},{"name":"title","type":"string","internalType":"string"},{"name":"description","type":"string","internalType":"string"},{"name":"skillCategory","type":"string","internalType":"string"},{"name":"difficulty","type":"uint256","internalType":"uint256"},{"name":"ipfsHash","type":"string","internalType":"string"},{"name":"reward","type":"uint256","internalType":"uint256"},{"name":"isActive","type":"bool","internalType":"bool"},{"name":"createdAt","type":"uint256","internalType":"uint256"},{"name":"creator","type":"address","internalType":"address"}]}],"stateMutability":"view"},{"type":"function","name":"getTotalTasks","inputs":[],"outputs":[{"name":"","type":"uint256","internalType":"uint256"}],"stateMutability":"view"},{"type":"function","name":"getUserSubmissions","inputs":[{"name":"user","type":"address","internalType":"address"}],"outputs":[{"name":"","type":"uint256[]","internalType":"uint256[]"}],"stateMutability":"view"},{"type":"function","name":"owner","inputs":[],"outputs":[{"name":"","type":"address","internalType":"address"}],"stateMutability":"view"},{"type":"function","name":"renounceOwnership","inputs":[],"outputs":[],"stateMutability":"nonpayable"},{"type":"function","name":"soulboundNFT","inputs":[],"outputs":[{"name":"","type":"address","internalType":"contract SoulboundReputation"}],"stateMutability":"view"},{"type":"function","name":"submissions","inputs":[{"name":"","type":"bytes32","internalType":"bytes32"}],"outputs":[{"name":"taskId","type":"uint256","internalType":"uint256"},{"name":"submitter","type":"address","internalType":"address"},{"name":"ipfsHash","type":"string","internalType":"string"},{"name":"score","type":"uint256","internalType":"uint256"},{"name":"isEvaluated","type":"bool","internalType":"bool"},{"name":"submittedAt","type":"uint256","internalType":"uint256"},{"name":"evaluatedAt","type":"uint256","internalType":"uint256"}],"stateMutability":"view"},{"type":"function","name":"submitTask","inputs":[{"name":"taskId","type":"uint256","internalType":"uint256"},{"name":"ipfsHash","type":"string","internalType":"string"}],"outputs":[],"stateMutability":"nonpayable"},{"type":"function","name":"syncToken","inputs":[],"outputs":[{"name":"","type":"address","internalType":"contract SyncToken"}],"stateMutability":"view"},{"type":"function","name":"tasks","inputs":[{"name":"","type":"uint256","internalType":"uint256"}],"outputs":[{"name":"id","type":"uint256","internalType":"uint256"},{"name":"title","type":"string","internalType":"string"},{"name":"description","type":"string","internalType":"string"},{"name":"skillCategory","type":"string","internalType":"string"},{"name":"difficulty","type":"uint256","internalType":"uint256"},{"name":"ipfsHash","type":"string","internalType":"string"},{"name":"reward","type":"uint256","internalType":"uint256"},{"name":"isActive","type":"bool","internalType":"bool"},{"name":"createdAt","type":"uint256","internalType":"uint256"},{"name":"creator","type":"address","internalType":"address"}],"stateMutability":"view"},{"type":"function","name":"transferOwnership","inputs":[{"name":"newOwner","type":"address","internalType":"address"}],"outputs":[],"stateMutability":"nonpayable"},{"type":"function","name":"userSubmissions","inputs":[{"name":"","type":"address","internalType":"address"},{"name":"","type":"uint256","internalType":"uint256"}],"outputs":[{"name":"","type":"uint256","internalType":"uint256"}],"stateMutability":"view"},{"type":"event","name":"OwnershipTransferred","inputs":[{"name":"previousOwner","type":"address","indexed":true,"internalType":"address"},{"name":"newOwner","type":"address","indexed":true,"internalType":"address"}],"anonymous":false},{"type":"event","name":"TaskCreated","inputs":[{"name":"taskId","type":"uint256","indexed":true,"internalType":"uint256"},{"name":"title","type":"string","indexed":false,"internalType":"string"},{"name":"skillCategory","type":"string","indexed":false,"internalType":"string"}],"anonymous":false},{"type":"event","name":"TaskEvaluated","inputs":[{"name":"taskId","type":"uint256","indexed":true,"internalType":"uint256"},{"name":"submitter","type":"address","indexed":true,"internalType":"address"},{"name":"score","type":"uint256","indexed":false,"internalType":"uint256"}],"anonymous":false},{"type":"event","name":"TaskSubmitted","inputs":[{"name":"taskId","type":"uint256","indexed":true,"internalType":"uint256"},{"name":"submitter","type":"address","indexed":true,"internalType":"address"},{"name":"ipfsHash","type":"string","indexed":false,"internalType":"string"}],"anonymous":false},{"type":"error","name":"OwnableInvalidOwner","inputs":[{"name":"owner","type":"address","internalType":"address"}]},{"type":"error","name":"OwnableUnauthorizedAccount","inputs":[{"name":"account","type":"address","internalType":"address"}]},{"type":"error","name":"ReentrancyGuardReentrantCall","inputs":[]}],"bytecode":{"object":"0x608060405234801561000f575f5ffd5b50604051612d0f380380612d0f83398181016040528101906100319190610260565b805f73ffffffffffffffffffffffffffffffffffffffff168173ffffffffffffffffffffffffffffffffffffffff16036100a2575f6040517f1e4fbdf700000000000000000000000000000000000000000000000000000000815260040161009991906102bf565b60405180910390fd5b6100b18161014160201b60201c565b50600180819055508260035f6101000a81548173ffffffffffffffffffffffffffffffffffffffff021916908373ffffffffffffffffffffffffffffffffffffffff1602179055508160045f6101000a81548173ffffffffffffffffffffffffffffffffffffffff021916908373ffffffffffffffffffffffffffffffffffffffff1602179055505050506102d8565b5f5f5f9054906101000a900473ffffffffffffffffffffffffffffffffffffffff169050815f5f6101000a81548173ffffffffffffffffffffffffffffffffffffffff021916908373ffffffffffffffffffffffffffffffffffffffff1602179055508173ffffffffffffffffffffffffffffffffffffffff168173ffffffffffffffffffffffffffffffffffffffff167f8be0079c531659141344cd1fd0a4f28419497f9722a3daafe3b4186f6b6457e060405160405180910390a35050565b5f5ffd5b5f73ffffffffffffffffffffffffffffffffffffffff82169050919050565b5f61022f82610206565b9050919050565b61023f81610225565b8114610249575f5ffd5b50565b5f8151905061025a81610236565b92915050565b5f5f5f6060848603121561027757610276610202565b5b5f6102848682870161024c565b93505060206102958682870161024c565b92505060406102a68682870161024c565b9150509250925092565b6102b981610225565b82525050565b5f6020820190506102d25f8301846102b0565b92915050565b612a2a806102e55f395ff3fe608060405234801561000f575f5ffd5b50600436106100f3575f3560e01c80638d97767211610095578063a7b8614d11610064578063a7b8614d14610278578063c5c9c0a2146102a8578063ed4c1d97146102de578063f2fde38b146102fc576100f3565b80638d977672146101d55780638da5cb5b1461020e5780638fb023e31461022c5780639b7e018014610248576100f3565b806355f0e221116100d157806355f0e221146101635780635e3a13de14610193578063715018a6146101af578063776bae68146101b9576100f3565b80631d65e77e146100f75780633c93b9051461012757806354ad8b5814610145575b5f5ffd5b610111600480360381019061010c91906119fc565b610318565b60405161011e9190611beb565b60405180910390f35b61012f61061a565b60405161013c9190611c1a565b60405180910390f35b61014d61062a565b60405161015a9190611c8e565b60405180910390f35b61017d60048036038101906101789190611cd1565b61064f565b60405161018a9190611da8565b60405180910390f35b6101ad60048036038101906101a89190611ef4565b6107ce565b005b6101b7610988565b005b6101d360048036038101906101ce9190611fed565b61099b565b005b6101ef60048036038101906101ea91906119fc565b610c7d565b6040516102059a999897969594939291906120ad565b60405180910390f35b610216610f10565b6040516102239190612163565b60405180910390f35b6102466004803603810190610241919061217c565b610f37565b005b610262600480360381019061025d91906121cc565b61153f565b60405161026f9190611c1a565b60405180910390f35b610292600480360381019061028d919061220a565b61156a565b60405161029f91906122dd565b60405180910390f35b6102c260048036038101906102bd9190612330565b6115fd565b6040516102d5979695949392919061235b565b60405180910390f35b6102e66116ec565b6040516102f391906123ef565b60405180910390f35b6103166004803603810190610311919061220a565b611711565b005b610320611904565b60055f8381526020019081526020015f20604051806101400160405290815f820154815260200160018201805461035690612435565b80601f016020809104026020016040519081016040528092919081815260200182805461038290612435565b80156103cd5780601f106103a4576101008083540402835291602001916103cd565b820191905f5260205f20905b8154815290600101906020018083116103b057829003601f168201915b505050505081526020016002820180546103e690612435565b80601f016020809104026020016040519081016040528092919081815260200182805461041290612435565b801561045d5780601f106104345761010080835404028352916020019161045d565b820191905f5260205f20905b81548152906001019060200180831161044057829003601f168201915b5050505050815260200160038201805461047690612435565b80601f01602080910402602001604051908101604052809291908181526020018280546104a290612435565b80156104ed5780601f106104c4576101008083540402835291602001916104ed565b820191905f5260205f20905b8154815290600101906020018083116104d057829003601f168201915b505050505081526020016004820154815260200160058201805461051090612435565b80601f016020809104026020016040519081016040528092919081815260200182805461053c90612435565b80156105875780601f1061055e57610100808354040283529160200191610587565b820191905f5260205f20905b81548152906001019060200180831161056a57829003601f168201915b5050505050815260200160068201548152602001600782015f9054906101000a900460ff1615151515815260200160088201548152602001600982015f9054906101000a900473ffffffffffffffffffffffffffffffffffffffff1673ffffffffffffffffffffffffffffffffffffffff1673ffffffffffffffffffffffffffffffffffffffff16815250509050919050565b5f6106256002611795565b905090565b60045f9054906101000a900473ffffffffffffffffffffffffffffffffffffffff1681565b610657611969565b5f838360405160200161066b9291906124ca565b60405160208183030381529060405280519060200120905060065f8281526020019081526020015f206040518060e00160405290815f8201548152602001600182015f9054906101000a900473ffffffffffffffffffffffffffffffffffffffff1673ffffffffffffffffffffffffffffffffffffffff1673ffffffffffffffffffffffffffffffffffffffff16815260200160028201805461070d90612435565b80601f016020809104026020016040519081016040528092919081815260200182805461073990612435565b80156107845780601f1061075b57610100808354040283529160200191610784565b820191905f5260205f20905b81548152906001019060200180831161076757829003601f168201915b5050505050815260200160038201548152602001600482015f9054906101000a900460ff161515151581526020016005820154815260200160068201548152505091505092915050565b6107d66117a1565b6107e06002611828565b5f6107eb6002611795565b90506040518061014001604052808281526020018881526020018781526020018681526020018581526020018481526020018381526020016001151581526020014281526020013373ffffffffffffffffffffffffffffffffffffffff1681525060055f8381526020019081526020015f205f820151815f0155602082015181600101908161087a919061268c565b506040820151816002019081610890919061268c565b5060608201518160030190816108a6919061268c565b506080820151816004015560a08201518160050190816108c6919061268c565b5060c0820151816006015560e0820151816007015f6101000a81548160ff0219169083151502179055506101008201518160080155610120820151816009015f6101000a81548173ffffffffffffffffffffffffffffffffffffffff021916908373ffffffffffffffffffffffffffffffffffffffff160217905550905050807f3aa7994277fd1283665573abffa8b1ef095947ad76908721a82ac157e8953d5a888760405161097792919061275b565b60405180910390a250505050505050565b6109906117a1565b6109995f61183c565b565b60055f8381526020019081526020015f206007015f9054906101000a900460ff166109fb576040517f08c379a00000000000000000000000000000000000000000000000000000000081526004016109f2906127da565b60405180910390fd5b5f8233604051602001610a0f9291906124ca565b6040516020818303038152906040528051906020012090505f73ffffffffffffffffffffffffffffffffffffffff1660065f8381526020019081526020015f206001015f9054906101000a900473ffffffffffffffffffffffffffffffffffffffff1673ffffffffffffffffffffffffffffffffffffffff1614610ac8576040517f08c379a0000000000000000000000000000000000000000000000000000000008152600401610abf90612842565b60405180910390fd5b6040518060e001604052808481526020013373ffffffffffffffffffffffffffffffffffffffff1681526020018381526020015f81526020015f151581526020014281526020015f81525060065f8381526020019081526020015f205f820151815f01556020820151816001015f6101000a81548173ffffffffffffffffffffffffffffffffffffffff021916908373ffffffffffffffffffffffffffffffffffffffff1602179055506040820151816002019081610b87919061268c565b50606082015181600301556080820151816004015f6101000a81548160ff02191690831515021790555060a0820151816005015560c0820151816006015590505060075f3373ffffffffffffffffffffffffffffffffffffffff1673ffffffffffffffffffffffffffffffffffffffff1681526020019081526020015f2083908060018154018082558091505060019003905f5260205f20015f90919091909150553373ffffffffffffffffffffffffffffffffffffffff16837f9989978868daa22b7a8a054a31e686ab83a420750a2a60b58facca87bf7c121984604051610c709190612860565b60405180910390a3505050565b6005602052805f5260405f205f91509050805f015490806001018054610ca290612435565b80601f0160208091040260200160405190810160405280929190818152602001828054610cce90612435565b8015610d195780601f10610cf057610100808354040283529160200191610d19565b820191905f5260205f20905b815481529060010190602001808311610cfc57829003601f168201915b505050505090806002018054610d2e90612435565b80601f0160208091040260200160405190810160405280929190818152602001828054610d5a90612435565b8015610da55780601f10610d7c57610100808354040283529160200191610da5565b820191905f5260205f20905b815481529060010190602001808311610d8857829003601f168201915b505050505090806003018054610dba90612435565b80601f0160208091040260200160405190810160405280929190818152602001828054610de690612435565b8015610e315780601f10610e0857610100808354040283529160200191610e31565b820191905f5260205f20905b815481529060010190602001808311610e1457829003601f168201915b505050505090806004015490806005018054610e4c90612435565b80601f0160208091040260200160405190810160405280929190818152602001828054610e7890612435565b8015610ec35780601f10610e9a57610100808354040283529160200191610ec3565b820191905f5260205f20905b815481529060010190602001808311610ea657829003601f168201915b505050505090806006015490806007015f9054906101000a900460ff1690806008015490806009015f9054906101000a900473ffffffffffffffffffffffffffffffffffffffff1690508a565b5f5f5f9054906101000a900473ffffffffffffffffffffffffffffffffffffffff16905090565b610f3f6117a1565b6064811115610f83576040517f08c379a0000000000000000000000000000000000000000000000000000000008152600401610f7a906128ca565b60405180910390fd5b5f8383604051602001610f979291906124ca565b6040516020818303038152906040528051906020012090505f60065f8381526020019081526020015f2090505f73ffffffffffffffffffffffffffffffffffffffff16816001015f9054906101000a900473ffffffffffffffffffffffffffffffffffffffff1673ffffffffffffffffffffffffffffffffffffffff1603611054576040517f08c379a000000000000000000000000000000000000000000000000000000000815260040161104b90612932565b60405180910390fd5b806004015f9054906101000a900460ff16156110a5576040517f08c379a000000000000000000000000000000000000000000000000000000000815260040161109c9061299a565b60405180910390fd5b8281600301819055506001816004015f6101000a81548160ff021916908315150217905550428160060181905550603c83106114e9575f60055f8781526020019081526020015f20604051806101400160405290815f820154815260200160018201805461111290612435565b80601f016020809104026020016040519081016040528092919081815260200182805461113e90612435565b80156111895780601f1061116057610100808354040283529160200191611189565b820191905f5260205f20905b81548152906001019060200180831161116c57829003601f168201915b505050505081526020016002820180546111a290612435565b80601f01602080910402602001604051908101604052809291908181526020018280546111ce90612435565b80156112195780601f106111f057610100808354040283529160200191611219565b820191905f5260205f20905b8154815290600101906020018083116111fc57829003601f168201915b5050505050815260200160038201805461123290612435565b80601f016020809104026020016040519081016040528092919081815260200182805461125e90612435565b80156112a95780601f10611280576101008083540402835291602001916112a9565b820191905f5260205f20905b81548152906001019060200180831161128c57829003601f168201915b50505050508152602001600482015481526020016005820180546112cc90612435565b80601f01602080910402602001604051908101604052809291908181526020018280546112f890612435565b80156113435780601f1061131a57610100808354040283529160200191611343565b820191905f5260205f20905b81548152906001019060200180831161132657829003601f168201915b5050505050815260200160068201548152602001600782015f9054906101000a900460ff1615151515815260200160088201548152602001600982015f9054906101000a900473ffffffffffffffffffffffffffffffffffffffff1673ffffffffffffffffffffffffffffffffffffffff1673ffffffffffffffffffffffffffffffffffffffff1681525050905060045f9054906101000a900473ffffffffffffffffffffffffffffffffffffffff1673ffffffffffffffffffffffffffffffffffffffff16636e0b2725868360600151876040518463ffffffff1660e01b8152600401611433939291906129b8565b5f604051808303815f87803b15801561144a575f5ffd5b505af115801561145c573d5f5f3e3d5ffd5b5050505060035f9054906101000a900473ffffffffffffffffffffffffffffffffffffffff1673ffffffffffffffffffffffffffffffffffffffff16634282d31a866040518263ffffffff1660e01b81526004016114ba9190612163565b5f604051808303815f87803b1580156114d1575f5ffd5b505af11580156114e3573d5f5f3e3d5ffd5b50505050505b8373ffffffffffffffffffffffffffffffffffffffff16857fa7a8b7a978aa012b867dc2122d9299a5a67f64f44b4b0fc77d5bc213702dec88856040516115309190611c1a565b60405180910390a35050505050565b6007602052815f5260405f208181548110611558575f80fd5b905f5260205f20015f91509150505481565b606060075f8373ffffffffffffffffffffffffffffffffffffffff1673ffffffffffffffffffffffffffffffffffffffff1681526020019081526020015f208054806020026020016040519081016040528092919081815260200182805480156115f157602002820191905f5260205f20905b8154815260200190600101908083116115dd575b50505050509050919050565b6006602052805f5260405f205f91509050805f015490806001015f9054906101000a900473ffffffffffffffffffffffffffffffffffffffff169080600201805461164790612435565b80601f016020809104026020016040519081016040528092919081815260200182805461167390612435565b80156116be5780601f10611695576101008083540402835291602001916116be565b820191905f5260205f20905b8154815290600101906020018083116116a157829003601f168201915b505050505090806003015490806004015f9054906101000a900460ff16908060050154908060060154905087565b60035f9054906101000a900473ffffffffffffffffffffffffffffffffffffffff1681565b6117196117a1565b5f73ffffffffffffffffffffffffffffffffffffffff168173ffffffffffffffffffffffffffffffffffffffff1603611789575f6040517f1e4fbdf70000000000000000000000000000000000000000000000000000000081526004016117809190612163565b60405180910390fd5b6117928161183c565b50565b5f815f01549050919050565b6117a96118fd565b73ffffffffffffffffffffffffffffffffffffffff166117c7610f10565b73ffffffffffffffffffffffffffffffffffffffff1614611826576117ea6118fd565b6040517f118cdaa700000000000000000000000000000000000000000000000000000000815260040161181d9190612163565b60405180910390fd5b565b6001815f015f828254019250508190555050565b5f5f5f9054906101000a900473ffffffffffffffffffffffffffffffffffffffff169050815f5f6101000a81548173ffffffffffffffffffffffffffffffffffffffff021916908373ffffffffffffffffffffffffffffffffffffffff1602179055508173ffffffffffffffffffffffffffffffffffffffff168173ffffffffffffffffffffffffffffffffffffffff167f8be0079c531659141344cd1fd0a4f28419497f9722a3daafe3b4186f6b6457e060405160405180910390a35050565b5f33905090565b6040518061014001604052805f81526020016060815260200160608152602001606081526020015f8152602001606081526020015f81526020015f151581526020015f81526020015f73ffffffffffffffffffffffffffffffffffffffff1681525090565b6040518060e001604052805f81526020015f73ffffffffffffffffffffffffffffffffffffffff168152602001606081526020015f81526020015f151581526020015f81526020015f81525090565b5f604051905090565b5f5ffd5b5f5ffd5b5f819050919050565b6119db816119c9565b81146119e5575f5ffd5b50565b5f813590506119f6816119d2565b92915050565b5f60208284031215611a1157611a106119c1565b5b5f611a1e848285016119e8565b91505092915050565b611a30816119c9565b82525050565b5f81519050919050565b5f82825260208201905092915050565b8281835e5f83830152505050565b5f601f19601f8301169050919050565b5f611a7882611a36565b611a828185611a40565b9350611a92818560208601611a50565b611a9b81611a5e565b840191505092915050565b5f8115159050919050565b611aba81611aa6565b82525050565b5f73ffffffffffffffffffffffffffffffffffffffff82169050919050565b5f611ae982611ac0565b9050919050565b611af981611adf565b82525050565b5f61014083015f830151611b155f860182611a27565b5060208301518482036020860152611b2d8282611a6e565b91505060408301518482036040860152611b478282611a6e565b91505060608301518482036060860152611b618282611a6e565b9150506080830151611b766080860182611a27565b5060a083015184820360a0860152611b8e8282611a6e565b91505060c0830151611ba360c0860182611a27565b5060e0830151611bb660e0860182611ab1565b50610100830151611bcb610100860182611a27565b50610120830151611be0610120860182611af0565b508091505092915050565b5f6020820190508181035f830152611c038184611aff565b905092915050565b611c14816119c9565b82525050565b5f602082019050611c2d5f830184611c0b565b92915050565b5f819050919050565b5f611c56611c51611c4c84611ac0565b611c33565b611ac0565b9050919050565b5f611c6782611c3c565b9050919050565b5f611c7882611c5d565b9050919050565b611c8881611c6e565b82525050565b5f602082019050611ca15f830184611c7f565b92915050565b611cb081611adf565b8114611cba575f5ffd5b50565b5f81359050611ccb81611ca7565b92915050565b5f5f60408385031215611ce757611ce66119c1565b5b5f611cf4858286016119e8565b9250506020611d0585828601611cbd565b9150509250929050565b5f60e083015f830151611d245f860182611a27565b506020830151611d376020860182611af0565b5060408301518482036040860152611d4f8282611a6e565b9150506060830151611d646060860182611a27565b506080830151611d776080860182611ab1565b5060a0830151611d8a60a0860182611a27565b5060c0830151611d9d60c0860182611a27565b508091505092915050565b5f6020820190508181035f830152611dc08184611d0f565b905092915050565b5f5ffd5b5f5ffd5b7f4e487b71000000000000000000000000000000000000000000000000000000005f52604160045260245ffd5b611e0682611a5e565b810181811067ffffffffffffffff82111715611e2557611e24611dd0565b5b80604052505050565b5f611e376119b8565b9050611e438282611dfd565b919050565b5f67ffffffffffffffff821115611e6257611e61611dd0565b5b611e6b82611a5e565b9050602081019050919050565b828183375f83830152505050565b5f611e98611e9384611e48565b611e2e565b905082815260208101848484011115611eb457611eb3611dcc565b5b611ebf848285611e78565b509392505050565b5f82601f830112611edb57611eda611dc8565b5b8135611eeb848260208601611e86565b91505092915050565b5f5f5f5f5f5f60c08789031215611f0e57611f0d6119c1565b5b5f87013567ffffffffffffffff811115611f2b57611f2a6119c5565b5b611f3789828a01611ec7565b965050602087013567ffffffffffffffff811115611f5857611f576119c5565b5b611f6489828a01611ec7565b955050604087013567ffffffffffffffff811115611f8557611f846119c5565b5b611f9189828a01611ec7565b9450506060611fa289828a016119e8565b935050608087013567ffffffffffffffff811115611fc357611fc26119c5565b5b611fcf89828a01611ec7565b92505060a0611fe089828a016119e8565b9150509295509295509295565b5f5f60408385031215612003576120026119c1565b5b5f612010858286016119e8565b925050602083013567ffffffffffffffff811115612031576120306119c5565b5b61203d85828601611ec7565b9150509250929050565b5f82825260208201905092915050565b5f61206182611a36565b61206b8185612047565b935061207b818560208601611a50565b61208481611a5e565b840191505092915050565b61209881611aa6565b82525050565b6120a781611adf565b82525050565b5f610140820190506120c15f83018d611c0b565b81810360208301526120d3818c612057565b905081810360408301526120e7818b612057565b905081810360608301526120fb818a612057565b905061210a6080830189611c0b565b81810360a083015261211c8188612057565b905061212b60c0830187611c0b565b61213860e083018661208f565b612146610100830185611c0b565b61215461012083018461209e565b9b9a5050505050505050505050565b5f6020820190506121765f83018461209e565b92915050565b5f5f5f60608486031215612193576121926119c1565b5b5f6121a0868287016119e8565b93505060206121b186828701611cbd565b92505060406121c2868287016119e8565b9150509250925092565b5f5f604083850312156121e2576121e16119c1565b5b5f6121ef85828601611cbd565b9250506020612200858286016119e8565b9150509250929050565b5f6020828403121561221f5761221e6119c1565b5b5f61222c84828501611cbd565b91505092915050565b5f81519050919050565b5f82825260208201905092915050565b5f819050602082019050919050565b5f6122698383611a27565b60208301905092915050565b5f602082019050919050565b5f61228b82612235565b612295818561223f565b93506122a08361224f565b805f5b838110156122d05781516122b7888261225e565b97506122c283612275565b9250506001810190506122a3565b5085935050505092915050565b5f6020820190508181035f8301526122f58184612281565b905092915050565b5f819050919050565b61230f816122fd565b8114612319575f5ffd5b50565b5f8135905061232a81612306565b92915050565b5f60208284031215612345576123446119c1565b5b5f6123528482850161231c565b91505092915050565b5f60e08201905061236e5f83018a611c0b565b61237b602083018961209e565b818103604083015261238d8188612057565b905061239c6060830187611c0b565b6123a9608083018661208f565b6123b660a0830185611c0b565b6123c360c0830184611c0b565b98975050505050505050565b5f6123d982611c5d565b9050919050565b6123e9816123cf565b82525050565b5f6020820190506124025f8301846123e0565b92915050565b7f4e487b71000000000000000000000000000000000000000000000000000000005f52602260045260245ffd5b5f600282049050600182168061244c57607f821691505b60208210810361245f5761245e612408565b5b50919050565b5f819050919050565b61247f61247a826119c9565b612465565b82525050565b5f8160601b9050919050565b5f61249b82612485565b9050919050565b5f6124ac82612491565b9050919050565b6124c46124bf82611adf565b6124a2565b82525050565b5f6124d5828561246e565b6020820191506124e582846124b3565b6014820191508190509392505050565b5f819050815f5260205f209050919050565b5f6020601f8301049050919050565b5f82821b905092915050565b5f600883026125517fffffffffffffffffffffffffffffffffffffffffffffffffffffffffffffffff82612516565b61255b8683612516565b95508019841693508086168417925050509392505050565b5f61258d612588612583846119c9565b611c33565b6119c9565b9050919050565b5f819050919050565b6125a683612573565b6125ba6125b282612594565b848454612522565b825550505050565b5f5f905090565b6125d16125c2565b6125dc81848461259d565b505050565b5b818110156125ff576125f45f826125c9565b6001810190506125e2565b5050565b601f82111561264457612615816124f5565b61261e84612507565b8101602085101561262d578190505b61264161263985612507565b8301826125e1565b50505b505050565b5f82821c905092915050565b5f6126645f1984600802612649565b1980831691505092915050565b5f61267c8383612655565b9150826002028217905092915050565b61269582611a36565b67ffffffffffffffff8111156126ae576126ad611dd0565b5b6126b88254612435565b6126c3828285612603565b5f60209050601f8311600181146126f4575f84156126e2578287015190505b6126ec8582612671565b865550612753565b601f198416612702866124f5565b5f5b8281101561272957848901518255600182019150602085019450602081019050612704565b868310156127465784890151612742601f891682612655565b8355505b6001600288020188555050505b505050505050565b5f6040820190508181035f8301526127738185612057565b905081810360208301526127878184612057565b90509392505050565b7f5461736b206973206e6f742061637469766500000000000000000000000000005f82015250565b5f6127c4601283612047565b91506127cf82612790565b602082019050919050565b5f6020820190508181035f8301526127f1816127b8565b9050919050565b7f416c7265616479207375626d69747465640000000000000000000000000000005f82015250565b5f61282c601183612047565b9150612837826127f8565b602082019050919050565b5f6020820190508181035f83015261285981612820565b9050919050565b5f6020820190508181035f8301526128788184612057565b905092915050565b7f53636f7265206d757374206265203c3d203130300000000000000000000000005f82015250565b5f6128b4601483612047565b91506128bf82612880565b602082019050919050565b5f6020820190508181035f8301526128e1816128a8565b9050919050565b7f5375626d697373696f6e206e6f7420666f756e640000000000000000000000005f82015250565b5f61291c601483612047565b9150612927826128e8565b602082019050919050565b5f6020820190508181035f83015261294981612910565b9050919050565b7f416c7265616479206576616c75617465640000000000000000000000000000005f82015250565b5f612984601183612047565b915061298f82612950565b602082019050919050565b5f6020820190508181035f8301526129b181612978565b9050919050565b5f6060820190506129cb5f83018661209e565b81810360208301526129dd8185612057565b90506129ec6040830184611c0b565b94935050505056fea2646970667358221220f75f9d9a7f46e5be2892946a2110f2d5bf3aec37ac9de2ab6937d53867f42dc564736f6c634300081e0033","linkReferences":{}},"methodIdentifiers":{"createTask(string,string,string,uint256,string,uint256)":"5e3a13de","evaluateTask(uint256,address,uint256)":"8fb023e3","getSubmission(uint256,address)":"55f0e221","getTask(uint256)":"1d65e77e","getTotalTasks()":"3c93b905","getUserSubmissions(address)":"a7b8614d","owner()":"8da5cb5b","renounceOwnership()":"715018a6","soulboundNFT()":"54ad8b58","submissions(bytes32)":"c5c9c0a2","submitTask(uint256,string)":"776bae68","syncToken()":"ed4c1d97","tasks(uint256)":"8d977672","transferOwnership(address)":"f2fde38b","userSubmissions(address,uint256)":"9b7e0180"},"id":51}